{
  "contractName": "Arb",
  "abi": [
    {
      "anonymous": false,
      "inputs": [
        {
          "indexed": false,
          "internalType": "uint256",
          "name": "amount",
          "type": "uint256"
        },
        {
          "indexed": false,
          "internalType": "address[]",
          "name": "path",
          "type": "address[]"
        }
      ],
      "name": "LogAmountAndPath",
      "type": "event"
    },
    {
      "anonymous": false,
      "inputs": [
        {
          "indexed": true,
          "internalType": "address",
          "name": "previousOwner",
          "type": "address"
        },
        {
          "indexed": true,
          "internalType": "address",
          "name": "newOwner",
          "type": "address"
        }
      ],
      "name": "OwnershipTransferred",
      "type": "event"
    },
    {
      "inputs": [],
      "name": "owner",
      "outputs": [
        {
          "internalType": "address",
          "name": "",
          "type": "address"
        }
      ],
      "stateMutability": "view",
      "type": "function",
      "constant": true
    },
    {
      "inputs": [],
      "name": "renounceOwnership",
      "outputs": [],
      "stateMutability": "nonpayable",
      "type": "function"
    },
    {
      "inputs": [
        {
          "internalType": "address",
          "name": "newOwner",
          "type": "address"
        }
      ],
      "name": "transferOwnership",
      "outputs": [],
      "stateMutability": "nonpayable",
      "type": "function"
    },
    {
      "stateMutability": "payable",
      "type": "receive",
      "payable": true
    },
    {
      "inputs": [
        {
          "internalType": "address",
          "name": "router",
          "type": "address"
        },
        {
          "internalType": "address",
          "name": "_tokenIn",
          "type": "address"
        },
        {
          "internalType": "address",
          "name": "_tokenOut",
          "type": "address"
        },
        {
          "internalType": "uint256",
          "name": "_amount",
          "type": "uint256"
        }
      ],
      "name": "getAmountOutMin",
      "outputs": [
        {
          "internalType": "uint256",
          "name": "",
          "type": "uint256"
        }
      ],
      "stateMutability": "view",
      "type": "function",
      "constant": true
    },
    {
      "inputs": [
        {
          "internalType": "address",
          "name": "_router1",
          "type": "address"
        },
        {
          "internalType": "address",
          "name": "_router2",
          "type": "address"
        },
        {
          "internalType": "address",
          "name": "_token1",
          "type": "address"
        },
        {
          "internalType": "address",
          "name": "_token2",
          "type": "address"
        },
        {
          "internalType": "uint256",
          "name": "_amount",
          "type": "uint256"
        }
      ],
      "name": "estimateDualDexTrade",
      "outputs": [
        {
          "internalType": "uint256",
          "name": "",
          "type": "uint256"
        }
      ],
      "stateMutability": "view",
      "type": "function",
      "constant": true
    },
    {
      "inputs": [
        {
          "internalType": "address",
          "name": "_router1",
          "type": "address"
        },
        {
          "internalType": "address",
          "name": "_router2",
          "type": "address"
        },
        {
          "internalType": "address",
          "name": "_token1",
          "type": "address"
        },
        {
          "internalType": "address",
          "name": "_token2",
          "type": "address"
        },
        {
          "internalType": "uint256",
          "name": "_amount",
          "type": "uint256"
        }
      ],
      "name": "dualDexTrade",
      "outputs": [],
      "stateMutability": "nonpayable",
      "type": "function"
    },
    {
      "inputs": [
        {
          "internalType": "address",
          "name": "_router1",
          "type": "address"
        },
        {
          "internalType": "address",
          "name": "_router2",
          "type": "address"
        },
        {
          "internalType": "address",
          "name": "_router3",
          "type": "address"
        },
        {
          "internalType": "address",
          "name": "_token1",
          "type": "address"
        },
        {
          "internalType": "address",
          "name": "_token2",
          "type": "address"
        },
        {
          "internalType": "address",
          "name": "_token3",
          "type": "address"
        },
        {
          "internalType": "uint256",
          "name": "_amount",
          "type": "uint256"
        }
      ],
      "name": "estimateTriDexTrade",
      "outputs": [
        {
          "internalType": "uint256",
          "name": "",
          "type": "uint256"
        }
      ],
      "stateMutability": "view",
      "type": "function",
      "constant": true
    },
    {
      "inputs": [
        {
          "internalType": "address",
          "name": "_tokenContractAddress",
          "type": "address"
        }
      ],
      "name": "getBalance",
      "outputs": [
        {
          "internalType": "uint256",
          "name": "",
          "type": "uint256"
        }
      ],
      "stateMutability": "view",
      "type": "function",
      "constant": true
    },
    {
      "inputs": [],
      "name": "recoverEth",
      "outputs": [],
      "stateMutability": "nonpayable",
      "type": "function"
    },
    {
      "inputs": [
        {
          "internalType": "address",
          "name": "tokenAddress",
          "type": "address"
        }
      ],
      "name": "recoverTokens",
      "outputs": [],
      "stateMutability": "nonpayable",
      "type": "function"
    }
  ],
  "bytecode": "0x608060405234801561001057600080fd5b5061002d61002261003260201b60201c565b61003a60201b60201c565b6100fe565b600033905090565b60008060009054906101000a900473ffffffffffffffffffffffffffffffffffffffff169050816000806101000a81548173ffffffffffffffffffffffffffffffffffffffff021916908373ffffffffffffffffffffffffffffffffffffffff1602179055508173ffffffffffffffffffffffffffffffffffffffff168173ffffffffffffffffffffffffffffffffffffffff167f8be0079c531659141344cd1fd0a4f28419497f9722a3daafe3b4186f6b6457e060405160405180910390a35050565b611b688061010d6000396000f3fe6080604052600436106100955760003560e01c8063715018a611610059578063715018a6146101aa5780638da5cb5b146101c1578063bcdb446b146101ec578063f2fde38b14610203578063f8b2cb4f1461022c5761009c565b8063068e7ca1146100a157806316114acd146100de5780631aa513181461010757806326a215ec1461013057806343cf6f241461016d5761009c565b3661009c57005b600080fd5b3480156100ad57600080fd5b506100c860048036038101906100c391906111f4565b610269565b6040516100d5919061127e565b60405180910390f35b3480156100ea57600080fd5b5061010560048036038101906101009190611299565b610298565b005b34801561011357600080fd5b5061012e600480360381019061012991906111f4565b610415565b005b34801561013c57600080fd5b50610157600480360381019061015291906112c6565b6106ff565b604051610164919061127e565b60405180910390f35b34801561017957600080fd5b50610194600480360381019061018f9190611368565b610741565b6040516101a1919061127e565b60405180910390f35b3480156101b657600080fd5b506101bf610a1a565b005b3480156101cd57600080fd5b506101d6610aa2565b6040516101e391906113de565b60405180910390f35b3480156101f857600080fd5b50610201610acb565b005b34801561020f57600080fd5b5061022a60048036038101906102259190611299565b610b90565b005b34801561023857600080fd5b50610253600480360381019061024e9190611299565b610c87565b604051610260919061127e565b60405180910390f35b60008061027887868686610741565b9050600061028887868885610741565b9050809250505095945050505050565b6102a0610d0f565b73ffffffffffffffffffffffffffffffffffffffff166102be610aa2565b73ffffffffffffffffffffffffffffffffffffffff1614610314576040517f08c379a000000000000000000000000000000000000000000000000000000000815260040161030b90611456565b60405180910390fd5b60008190508073ffffffffffffffffffffffffffffffffffffffff1663a9059cbb338373ffffffffffffffffffffffffffffffffffffffff166370a08231306040518263ffffffff1660e01b815260040161036f91906113de565b602060405180830381865afa15801561038c573d6000803e3d6000fd5b505050506040513d601f19601f820116820180604052508101906103b0919061148b565b6040518363ffffffff1660e01b81526004016103cd9291906114b8565b6020604051808303816000875af11580156103ec573d6000803e3d6000fd5b505050506040513d601f19601f820116820180604052508101906104109190611519565b505050565b61041d610d0f565b73ffffffffffffffffffffffffffffffffffffffff1661043b610aa2565b73ffffffffffffffffffffffffffffffffffffffff1614610491576040517f08c379a000000000000000000000000000000000000000000000000000000000815260040161048890611456565b60405180910390fd5b60008373ffffffffffffffffffffffffffffffffffffffff166370a08231306040518263ffffffff1660e01b81526004016104cc91906113de565b602060405180830381865afa1580156104e9573d6000803e3d6000fd5b505050506040513d601f19601f8201168201806040525081019061050d919061148b565b905060008373ffffffffffffffffffffffffffffffffffffffff166370a08231306040518263ffffffff1660e01b815260040161054a91906113de565b602060405180830381865afa158015610567573d6000803e3d6000fd5b505050506040513d601f19601f8201168201806040525081019061058b919061148b565b905061059987868686610d17565b60008473ffffffffffffffffffffffffffffffffffffffff166370a08231306040518263ffffffff1660e01b81526004016105d491906113de565b602060405180830381865afa1580156105f1573d6000803e3d6000fd5b505050506040513d601f19601f82011682018060405250810190610615919061148b565b9050600082826106259190611575565b905061063388878984610d17565b60008773ffffffffffffffffffffffffffffffffffffffff166370a08231306040518263ffffffff1660e01b815260040161066e91906113de565b602060405180830381865afa15801561068b573d6000803e3d6000fd5b505050506040513d601f19601f820116820180604052508101906106af919061148b565b90508481116106f3576040517f08c379a00000000000000000000000000000000000000000000000000000000081526004016106ea906115f5565b60405180910390fd5b50505050505050505050565b60008061070e89878786610741565b9050600061071e89878785610741565b9050600061072e89878a85610741565b9050809350505050979650505050505050565b60006060600267ffffffffffffffff8111156107605761075f611615565b5b60405190808252806020026020018201604052801561078e5781602001602082028036833780820191505090505b50905084816000815181106107a6576107a5611644565b5b602002602001019073ffffffffffffffffffffffffffffffffffffffff16908173ffffffffffffffffffffffffffffffffffffffff168152505083816001815181106107f5576107f4611644565b5b602002602001019073ffffffffffffffffffffffffffffffffffffffff16908173ffffffffffffffffffffffffffffffffffffffff168152505061086e6040518060400160405280600681526020017f526f75746572000000000000000000000000000000000000000000000000000081525087610f27565b6108ad6040518060400160405280600681526020017f416d6f756e74000000000000000000000000000000000000000000000000000081525084610fc3565b6109076040518060400160405280600681526020017f5061746820300000000000000000000000000000000000000000000000000000815250826000815181106108fa576108f9611644565b5b6020026020010151610f27565b6109616040518060400160405280600681526020017f50617468203100000000000000000000000000000000000000000000000000008152508260018151811061095457610953611644565b5b6020026020010151610f27565b60008673ffffffffffffffffffffffffffffffffffffffff1663d06ca61f85846040518363ffffffff1660e01b815260040161099e929190611731565b600060405180830381865afa1580156109bb573d6000803e3d6000fd5b505050506040513d6000823e3d601f19601f820116820180604052508101906109e4919061188b565b905080600183516109f59190611575565b81518110610a0657610a05611644565b5b602002602001015192505050949350505050565b610a22610d0f565b73ffffffffffffffffffffffffffffffffffffffff16610a40610aa2565b73ffffffffffffffffffffffffffffffffffffffff1614610a96576040517f08c379a0000000000000000000000000000000000000000000000000000000008152600401610a8d90611456565b60405180910390fd5b610aa0600061105f565b565b60008060009054906101000a900473ffffffffffffffffffffffffffffffffffffffff16905090565b610ad3610d0f565b73ffffffffffffffffffffffffffffffffffffffff16610af1610aa2565b73ffffffffffffffffffffffffffffffffffffffff1614610b47576040517f08c379a0000000000000000000000000000000000000000000000000000000008152600401610b3e90611456565b60405180910390fd5b3373ffffffffffffffffffffffffffffffffffffffff166108fc479081150290604051600060405180830381858888f19350505050158015610b8d573d6000803e3d6000fd5b50565b610b98610d0f565b73ffffffffffffffffffffffffffffffffffffffff16610bb6610aa2565b73ffffffffffffffffffffffffffffffffffffffff1614610c0c576040517f08c379a0000000000000000000000000000000000000000000000000000000008152600401610c0390611456565b60405180910390fd5b600073ffffffffffffffffffffffffffffffffffffffff168173ffffffffffffffffffffffffffffffffffffffff1603610c7b576040517f08c379a0000000000000000000000000000000000000000000000000000000008152600401610c7290611946565b60405180910390fd5b610c848161105f565b50565b6000808273ffffffffffffffffffffffffffffffffffffffff166370a08231306040518263ffffffff1660e01b8152600401610cc391906113de565b602060405180830381865afa158015610ce0573d6000803e3d6000fd5b505050506040513d601f19601f82011682018060405250810190610d04919061148b565b905080915050919050565b600033905090565b8273ffffffffffffffffffffffffffffffffffffffff1663095ea7b385836040518363ffffffff1660e01b8152600401610d529291906114b8565b6020604051808303816000875af1158015610d71573d6000803e3d6000fd5b505050506040513d601f19601f82011682018060405250810190610d959190611519565b506060600267ffffffffffffffff811115610db357610db2611615565b5b604051908082528060200260200182016040528015610de15781602001602082028036833780820191505090505b5090508381600081518110610df957610df8611644565b5b602002602001019073ffffffffffffffffffffffffffffffffffffffff16908173ffffffffffffffffffffffffffffffffffffffff16815250508281600181518110610e4857610e47611644565b5b602002602001019073ffffffffffffffffffffffffffffffffffffffff16908173ffffffffffffffffffffffffffffffffffffffff1681525050600061012c42610e929190611966565b90508573ffffffffffffffffffffffffffffffffffffffff166338ed17398460018530866040518663ffffffff1660e01b8152600401610ed6959493929190611a01565b6000604051808303816000875af1158015610ef5573d6000803e3d6000fd5b505050506040513d6000823e3d601f19601f82011682018060405250810190610f1e919061188b565b50505050505050565b610fbf8282604051602401610f3d929190611ad2565b6040516020818303038152906040527f319af333000000000000000000000000000000000000000000000000000000007bffffffffffffffffffffffffffffffffffffffffffffffffffffffff19166020820180517bffffffffffffffffffffffffffffffffffffffffffffffffffffffff8381831617835250505050611123565b5050565b61105b8282604051602401610fd9929190611b02565b6040516020818303038152906040527f9710a9d0000000000000000000000000000000000000000000000000000000007bffffffffffffffffffffffffffffffffffffffffffffffffffffffff19166020820180517bffffffffffffffffffffffffffffffffffffffffffffffffffffffff8381831617835250505050611123565b5050565b60008060009054906101000a900473ffffffffffffffffffffffffffffffffffffffff169050816000806101000a81548173ffffffffffffffffffffffffffffffffffffffff021916908373ffffffffffffffffffffffffffffffffffffffff1602179055508173ffffffffffffffffffffffffffffffffffffffff168173ffffffffffffffffffffffffffffffffffffffff167f8be0079c531659141344cd1fd0a4f28419497f9722a3daafe3b4186f6b6457e060405160405180910390a35050565b60008151905060006a636f6e736f6c652e6c6f679050602083016000808483855afa5050505050565b6000604051905090565b600080fd5b600080fd5b600073ffffffffffffffffffffffffffffffffffffffff82169050919050565b600061118b82611160565b9050919050565b61119b81611180565b81146111a657600080fd5b50565b6000813590506111b881611192565b92915050565b6000819050919050565b6111d1816111be565b81146111dc57600080fd5b50565b6000813590506111ee816111c8565b92915050565b600080600080600060a086880312156112105761120f611156565b5b600061121e888289016111a9565b955050602061122f888289016111a9565b9450506040611240888289016111a9565b9350506060611251888289016111a9565b9250506080611262888289016111df565b9150509295509295909350565b611278816111be565b82525050565b6000602082019050611293600083018461126f565b92915050565b6000602082840312156112af576112ae611156565b5b60006112bd848285016111a9565b91505092915050565b600080600080600080600060e0888a0312156112e5576112e4611156565b5b60006112f38a828b016111a9565b97505060206113048a828b016111a9565b96505060406113158a828b016111a9565b95505060606113268a828b016111a9565b94505060806113378a828b016111a9565b93505060a06113488a828b016111a9565b92505060c06113598a828b016111df565b91505092959891949750929550565b6000806000806080858703121561138257611381611156565b5b6000611390878288016111a9565b94505060206113a1878288016111a9565b93505060406113b2878288016111a9565b92505060606113c3878288016111df565b91505092959194509250565b6113d881611180565b82525050565b60006020820190506113f360008301846113cf565b92915050565b600082825260208201905092915050565b7f4f776e61626c653a2063616c6c6572206973206e6f7420746865206f776e6572600082015250565b60006114406020836113f9565b915061144b8261140a565b602082019050919050565b6000602082019050818103600083015261146f81611433565b9050919050565b600081519050611485816111c8565b92915050565b6000602082840312156114a1576114a0611156565b5b60006114af84828501611476565b91505092915050565b60006040820190506114cd60008301856113cf565b6114da602083018461126f565b9392505050565b60008115159050919050565b6114f6816114e1565b811461150157600080fd5b50565b600081519050611513816114ed565b92915050565b60006020828403121561152f5761152e611156565b5b600061153d84828501611504565b91505092915050565b7f4e487b7100000000000000000000000000000000000000000000000000000000600052601160045260246000fd5b6000611580826111be565b915061158b836111be565b92508282101561159e5761159d611546565b5b828203905092915050565b7f54726164652052657665727465642c204e6f2050726f666974204d6164650000600082015250565b60006115df601e836113f9565b91506115ea826115a9565b602082019050919050565b6000602082019050818103600083015261160e816115d2565b9050919050565b7f4e487b7100000000000000000000000000000000000000000000000000000000600052604160045260246000fd5b7f4e487b7100000000000000000000000000000000000000000000000000000000600052603260045260246000fd5b600081519050919050565b600082825260208201905092915050565b6000819050602082019050919050565b6116a881611180565b82525050565b60006116ba838361169f565b60208301905092915050565b6000602082019050919050565b60006116de82611673565b6116e8818561167e565b93506116f38361168f565b8060005b8381101561172457815161170b88826116ae565b9750611716836116c6565b9250506001810190506116f7565b5085935050505092915050565b6000604082019050611746600083018561126f565b818103602083015261175881846116d3565b90509392505050565b600080fd5b6000601f19601f8301169050919050565b61178082611766565b810181811067ffffffffffffffff8211171561179f5761179e611615565b5b80604052505050565b60006117b261114c565b90506117be8282611777565b919050565b600067ffffffffffffffff8211156117de576117dd611615565b5b602082029050602081019050919050565b600080fd5b6000611807611802846117c3565b6117a8565b9050808382526020820190506020840283018581111561182a576118296117ef565b5b835b81811015611853578061183f8882611476565b84526020840193505060208101905061182c565b5050509392505050565b600082601f83011261187257611871611761565b5b81516118828482602086016117f4565b91505092915050565b6000602082840312156118a1576118a0611156565b5b600082015167ffffffffffffffff8111156118bf576118be61115b565b5b6118cb8482850161185d565b91505092915050565b7f4f776e61626c653a206e6577206f776e657220697320746865207a65726f206160008201527f6464726573730000000000000000000000000000000000000000000000000000602082015250565b60006119306026836113f9565b915061193b826118d4565b604082019050919050565b6000602082019050818103600083015261195f81611923565b9050919050565b6000611971826111be565b915061197c836111be565b9250827fffffffffffffffffffffffffffffffffffffffffffffffffffffffffffffffff038211156119b1576119b0611546565b5b828201905092915050565b6000819050919050565b6000819050919050565b60006119eb6119e66119e1846119bc565b6119c6565b6111be565b9050919050565b6119fb816119d0565b82525050565b600060a082019050611a16600083018861126f565b611a2360208301876119f2565b8181036040830152611a3581866116d3565b9050611a4460608301856113cf565b611a51608083018461126f565b9695505050505050565b600081519050919050565b60005b83811015611a84578082015181840152602081019050611a69565b83811115611a93576000848401525b50505050565b6000611aa482611a5b565b611aae81856113f9565b9350611abe818560208601611a66565b611ac781611766565b840191505092915050565b60006040820190508181036000830152611aec8185611a99565b9050611afb60208301846113cf565b9392505050565b60006040820190508181036000830152611b1c8185611a99565b9050611b2b602083018461126f565b939250505056fea2646970667358221220d8a606f1bb2d79762d4461e00720856a481bf6fca4988f8351b3689f1020487164736f6c634300080d0033",
  "immutableReferences": {},
  "source": "//SPDX-License-Identifier: Unlicense\npragma solidity ^0.8.4;\n\nimport \"hardhat/console.sol\";\n\nimport \"@openzeppelin/contracts/access/Ownable.sol\";\n\ninterface IERC20 {\n\tfunction totalSupply() external view returns (uint);\n\tfunction balanceOf(address account) external view returns (uint);\n\tfunction transfer(address recipient, uint amount) external returns (bool);\n\tfunction allowance(address owner, address spender) external view returns (uint);\n\tfunction approve(address spender, uint amount) external returns (bool);\n\tfunction transferFrom(address sender, address recipient, uint amount) external returns (bool);\n\tevent Transfer(address indexed from, address indexed to, uint value);\n\tevent Approval(address indexed owner, address indexed spender, uint value);\n}\n\ninterface IUniswapV2Router {\n  function getAmountsOut(uint256 amountIn, address[] memory path) external view returns (uint256[] memory amounts);\n  function swapExactTokensForTokens(uint256 amountIn, uint256 amountOutMin, address[] calldata path, address to, uint256 deadline) external returns (uint256[] memory amounts);\n}\n\ninterface IUniswapV2Pair {\n  function token0() external view returns (address);\n  function token1() external view returns (address);\n  function swap(uint256 amount0Out,\tuint256 amount1Out,\taddress to,\tbytes calldata data) external;\n}\n\ncontract Arb is Ownable {\n\n\tevent LogAmountAndPath(uint256 amount, address[] path);\n\n\tfunction swap(address router, address _tokenIn, address _tokenOut, uint256 _amount) private {\n\t\tIERC20(_tokenIn).approve(router, _amount);\n\t\taddress[] memory path;\n\t\tpath = new address[](2);\n\t\tpath[0] = _tokenIn;\n\t\tpath[1] = _tokenOut;\n\t\tuint deadline = block.timestamp + 300;\n\t\tIUniswapV2Router(router).swapExactTokensForTokens(_amount, 1, path, address(this), deadline);\n\t}\n\n\tfunction getAmountOutMin(address router, address _tokenIn, address _tokenOut, uint256 _amount) public view returns (uint256) {\n\t\taddress[] memory path;\n\t\tpath = new address[](2);\n\t\tpath[0] = _tokenIn;\n\t\tpath[1] = _tokenOut;\n\t\tconsole.log(\"Router\", router);\n\t\tconsole.log(\"Amount\", _amount);\n\t\tconsole.log(\"Path 0\", path[0]);\n\t\tconsole.log(\"Path 1\", path[1]);\n\t\tuint256[] memory amountOutMins = IUniswapV2Router(router).getAmountsOut(_amount, path);\n\t\treturn amountOutMins[path.length -1];\n\t}\n\n\tfunction estimateDualDexTrade(address _router1, address _router2, address _token1, address _token2, uint256 _amount) external view returns (uint256) {\n\t\t\tuint256 amtBack1 = getAmountOutMin(_router1, _token1, _token2, _amount);\n\t\t\tuint256 amtBack2 = getAmountOutMin(_router2, _token2, _token1, amtBack1);\n\t\t\treturn amtBack2;\n\t\t}\n\t\t\n\tfunction dualDexTrade(address _router1, address _router2, address _token1, address _token2, uint256 _amount) external onlyOwner {\n\t\tuint startBalance = IERC20(_token1).balanceOf(address(this));\n\t\tuint token2InitialBalance = IERC20(_token2).balanceOf(address(this));\n\t\tswap(_router1,_token1, _token2,_amount);\n\t\tuint token2Balance = IERC20(_token2).balanceOf(address(this));\n\t\tuint tradeableAmount = token2Balance - token2InitialBalance;\n\t\tswap(_router2,_token2, _token1,tradeableAmount);\n\t\tuint endBalance = IERC20(_token1).balanceOf(address(this));\n\t\trequire(endBalance > startBalance, \"Trade Reverted, No Profit Made\");\n\t}\n\n\tfunction estimateTriDexTrade(address _router1, address _router2, address _router3, address _token1, address _token2, address _token3, uint256 _amount) external view returns (uint256) {\n\t\tuint amtBack1 = getAmountOutMin(_router1, _token1, _token2, _amount);\n\t\tuint amtBack2 = getAmountOutMin(_router2, _token2, _token3, amtBack1);\n\t\tuint amtBack3 = getAmountOutMin(_router3, _token3, _token1, amtBack2);\n\t\treturn amtBack3;\n\t}\n\n\tfunction getBalance (address _tokenContractAddress) external view  returns (uint256) {\n\t\tuint balance = IERC20(_tokenContractAddress).balanceOf(address(this));\n\t\treturn balance;\n\t}\n\t\n\tfunction recoverEth() external onlyOwner {\n\t\tpayable(msg.sender).transfer(address(this).balance);\n\t}\n\n\tfunction recoverTokens(address tokenAddress) external onlyOwner {\n\t\tIERC20 token = IERC20(tokenAddress);\n\t\ttoken.transfer(msg.sender, token.balanceOf(address(this)));\n\t}\n\t\n\treceive() external payable {}\n\n}\n",
  "sourcePath": "/Users/justinsacco/Developer Projects/TradingSystems/DEX-Arbitrage/contracts/Arb.sol",
  "compiler": {
    "name": "solc",
    "version": "0.8.13+commit.abaa5c0e.Emscripten.clang"
  },
  "schemaVersion": "3.4.4",
  "updatedAt": "2023-09-21T23:53:38.308Z",
  "networkType": "ethereum",
  "devdoc": {
    "kind": "dev",
    "methods": {
      "owner()": {
        "details": "Returns the address of the current owner."
      },
      "renounceOwnership()": {
        "details": "Leaves the contract without owner. It will not be possible to call `onlyOwner` functions anymore. Can only be called by the current owner. NOTE: Renouncing ownership will leave the contract without an owner, thereby removing any functionality that is only available to the owner."
      },
      "transferOwnership(address)": {
        "details": "Transfers ownership of the contract to a new account (`newOwner`). Can only be called by the current owner."
      }
    },
    "version": 1
  },
  "userdoc": {
    "kind": "user",
    "methods": {},
    "version": 1
  }
}