{
  "contractName": "Arb",
  "abi": [
    {
      "anonymous": false,
      "inputs": [
        {
          "indexed": true,
          "internalType": "address",
          "name": "previousOwner",
          "type": "address"
        },
        {
          "indexed": true,
          "internalType": "address",
          "name": "newOwner",
          "type": "address"
        }
      ],
      "name": "OwnershipTransferred",
      "type": "event"
    },
    {
      "inputs": [],
      "name": "owner",
      "outputs": [
        {
          "internalType": "address",
          "name": "",
          "type": "address"
        }
      ],
      "stateMutability": "view",
      "type": "function",
      "constant": true
    },
    {
      "inputs": [],
      "name": "renounceOwnership",
      "outputs": [],
      "stateMutability": "nonpayable",
      "type": "function"
    },
    {
      "inputs": [
        {
          "internalType": "address",
          "name": "newOwner",
          "type": "address"
        }
      ],
      "name": "transferOwnership",
      "outputs": [],
      "stateMutability": "nonpayable",
      "type": "function"
    },
    {
      "stateMutability": "payable",
      "type": "receive",
      "payable": true
    },
    {
      "inputs": [
        {
          "internalType": "address",
          "name": "router",
          "type": "address"
        },
        {
          "internalType": "address",
          "name": "_tokenIn",
          "type": "address"
        },
        {
          "internalType": "address",
          "name": "_tokenOut",
          "type": "address"
        },
        {
          "internalType": "uint256",
          "name": "_amount",
          "type": "uint256"
        }
      ],
      "name": "getAmountOutMin",
      "outputs": [
        {
          "internalType": "uint256",
          "name": "",
          "type": "uint256"
        }
      ],
      "stateMutability": "view",
      "type": "function",
      "constant": true
    },
    {
      "inputs": [
        {
          "internalType": "address",
          "name": "_router1",
          "type": "address"
        },
        {
          "internalType": "address",
          "name": "_router2",
          "type": "address"
        },
        {
          "internalType": "address",
          "name": "_token1",
          "type": "address"
        },
        {
          "internalType": "address",
          "name": "_token2",
          "type": "address"
        },
        {
          "internalType": "uint256",
          "name": "_amount",
          "type": "uint256"
        }
      ],
      "name": "estimateDualDexTrade",
      "outputs": [
        {
          "internalType": "uint256",
          "name": "",
          "type": "uint256"
        }
      ],
      "stateMutability": "view",
      "type": "function",
      "constant": true
    },
    {
      "inputs": [
        {
          "internalType": "address",
          "name": "_router1",
          "type": "address"
        },
        {
          "internalType": "address",
          "name": "_router2",
          "type": "address"
        },
        {
          "internalType": "address",
          "name": "_token1",
          "type": "address"
        },
        {
          "internalType": "address",
          "name": "_token2",
          "type": "address"
        },
        {
          "internalType": "uint256",
          "name": "_amount",
          "type": "uint256"
        }
      ],
      "name": "dualDexTrade",
      "outputs": [],
      "stateMutability": "nonpayable",
      "type": "function"
    },
    {
      "inputs": [
        {
          "internalType": "address",
          "name": "_router1",
          "type": "address"
        },
        {
          "internalType": "address",
          "name": "_router2",
          "type": "address"
        },
        {
          "internalType": "address",
          "name": "_router3",
          "type": "address"
        },
        {
          "internalType": "address",
          "name": "_token1",
          "type": "address"
        },
        {
          "internalType": "address",
          "name": "_token2",
          "type": "address"
        },
        {
          "internalType": "address",
          "name": "_token3",
          "type": "address"
        },
        {
          "internalType": "uint256",
          "name": "_amount",
          "type": "uint256"
        }
      ],
      "name": "estimateTriDexTrade",
      "outputs": [
        {
          "internalType": "uint256",
          "name": "",
          "type": "uint256"
        }
      ],
      "stateMutability": "view",
      "type": "function",
      "constant": true
    },
    {
      "inputs": [
        {
          "internalType": "address",
          "name": "_tokenContractAddress",
          "type": "address"
        }
      ],
      "name": "getBalance",
      "outputs": [
        {
          "internalType": "uint256",
          "name": "",
          "type": "uint256"
        }
      ],
      "stateMutability": "view",
      "type": "function",
      "constant": true
    },
    {
      "inputs": [],
      "name": "recoverEth",
      "outputs": [],
      "stateMutability": "nonpayable",
      "type": "function"
    },
    {
      "inputs": [
        {
          "internalType": "address",
          "name": "tokenAddress",
          "type": "address"
        }
      ],
      "name": "recoverTokens",
      "outputs": [],
      "stateMutability": "nonpayable",
      "type": "function"
    }
  ],
  "bytecode": "0x608060405234801561000f575f80fd5b5061002c61002161003160201b60201c565b61003860201b60201c565b6100f9565b5f33905090565b5f805f9054906101000a900473ffffffffffffffffffffffffffffffffffffffff169050815f806101000a81548173ffffffffffffffffffffffffffffffffffffffff021916908373ffffffffffffffffffffffffffffffffffffffff1602179055508173ffffffffffffffffffffffffffffffffffffffff168173ffffffffffffffffffffffffffffffffffffffff167f8be0079c531659141344cd1fd0a4f28419497f9722a3daafe3b4186f6b6457e060405160405180910390a35050565b6119e9806101065f395ff3fe608060405260043610610094575f3560e01c8063715018a611610058578063715018a6146101a35780638da5cb5b146101b9578063bcdb446b146101e3578063f2fde38b146101f9578063f8b2cb4f146102215761009b565b8063068e7ca11461009f57806316114acd146100db5780631aa513181461010357806326a215ec1461012b57806343cf6f24146101675761009b565b3661009b57005b5f80fd5b3480156100aa575f80fd5b506100c560048036038101906100c091906110f0565b61025d565b6040516100d29190611176565b60405180910390f35b3480156100e6575f80fd5b5061010160048036038101906100fc919061118f565b61028a565b005b34801561010e575f80fd5b50610129600480360381019061012491906110f0565b610401565b005b348015610136575f80fd5b50610151600480360381019061014c91906111ba565b6106de565b60405161015e9190611176565b60405180910390f35b348015610172575f80fd5b5061018d60048036038101906101889190611257565b61071d565b60405161019a9190611176565b60405180910390f35b3480156101ae575f80fd5b506101b761093b565b005b3480156101c4575f80fd5b506101cd6109c2565b6040516101da91906112ca565b60405180910390f35b3480156101ee575f80fd5b506101f76109e9565b005b348015610204575f80fd5b5061021f600480360381019061021a919061118f565b610aab565b005b34801561022c575f80fd5b506102476004803603810190610242919061118f565b610ba1565b6040516102549190611176565b60405180910390f35b5f8061026b8786868661071d565b90505f61027a8786888561071d565b9050809250505095945050505050565b610292610c26565b73ffffffffffffffffffffffffffffffffffffffff166102b06109c2565b73ffffffffffffffffffffffffffffffffffffffff1614610306576040517f08c379a00000000000000000000000000000000000000000000000000000000081526004016102fd9061133d565b60405180910390fd5b5f8190508073ffffffffffffffffffffffffffffffffffffffff1663a9059cbb338373ffffffffffffffffffffffffffffffffffffffff166370a08231306040518263ffffffff1660e01b815260040161036091906112ca565b602060405180830381865afa15801561037b573d5f803e3d5ffd5b505050506040513d601f19601f8201168201806040525081019061039f919061136f565b6040518363ffffffff1660e01b81526004016103bc92919061139a565b6020604051808303815f875af11580156103d8573d5f803e3d5ffd5b505050506040513d601f19601f820116820180604052508101906103fc91906113f6565b505050565b610409610c26565b73ffffffffffffffffffffffffffffffffffffffff166104276109c2565b73ffffffffffffffffffffffffffffffffffffffff161461047d576040517f08c379a00000000000000000000000000000000000000000000000000000000081526004016104749061133d565b60405180910390fd5b5f8373ffffffffffffffffffffffffffffffffffffffff166370a08231306040518263ffffffff1660e01b81526004016104b791906112ca565b602060405180830381865afa1580156104d2573d5f803e3d5ffd5b505050506040513d601f19601f820116820180604052508101906104f6919061136f565b90505f8373ffffffffffffffffffffffffffffffffffffffff166370a08231306040518263ffffffff1660e01b815260040161053291906112ca565b602060405180830381865afa15801561054d573d5f803e3d5ffd5b505050506040513d601f19601f82011682018060405250810190610571919061136f565b905061057f87868686610c2d565b5f8473ffffffffffffffffffffffffffffffffffffffff166370a08231306040518263ffffffff1660e01b81526004016105b991906112ca565b602060405180830381865afa1580156105d4573d5f803e3d5ffd5b505050506040513d601f19601f820116820180604052508101906105f8919061136f565b90505f8282610607919061144e565b905061061588878984610c2d565b5f8773ffffffffffffffffffffffffffffffffffffffff166370a08231306040518263ffffffff1660e01b815260040161064f91906112ca565b602060405180830381865afa15801561066a573d5f803e3d5ffd5b505050506040513d601f19601f8201168201806040525081019061068e919061136f565b90508481116106d2576040517f08c379a00000000000000000000000000000000000000000000000000000000081526004016106c9906114cb565b60405180910390fd5b50505050505050505050565b5f806106ec8987878661071d565b90505f6106fb8987878561071d565b90505f61070a89878a8561071d565b9050809350505050979650505050505050565b5f6060600267ffffffffffffffff81111561073b5761073a6114e9565b5b6040519080825280602002602001820160405280156107695781602001602082028036833780820191505090505b50905084815f815181106107805761077f611516565b5b602002602001019073ffffffffffffffffffffffffffffffffffffffff16908173ffffffffffffffffffffffffffffffffffffffff168152505083816001815181106107cf576107ce611516565b5b602002602001019073ffffffffffffffffffffffffffffffffffffffff16908173ffffffffffffffffffffffffffffffffffffffff16815250506108486040518060400160405280600681526020017f526f75746572000000000000000000000000000000000000000000000000000081525087610e33565b6108876040518060400160405280600681526020017f416d6f756e74000000000000000000000000000000000000000000000000000081525084610ecf565b5f8673ffffffffffffffffffffffffffffffffffffffff1663d06ca61f85846040518363ffffffff1660e01b81526004016108c39291906115fa565b5f60405180830381865afa1580156108dd573d5f803e3d5ffd5b505050506040513d5f823e3d601f19601f82011682018060405250810190610905919061174b565b90508060018351610916919061144e565b8151811061092757610926611516565b5b602002602001015192505050949350505050565b610943610c26565b73ffffffffffffffffffffffffffffffffffffffff166109616109c2565b73ffffffffffffffffffffffffffffffffffffffff16146109b7576040517f08c379a00000000000000000000000000000000000000000000000000000000081526004016109ae9061133d565b60405180910390fd5b6109c05f610f6b565b565b5f805f9054906101000a900473ffffffffffffffffffffffffffffffffffffffff16905090565b6109f1610c26565b73ffffffffffffffffffffffffffffffffffffffff16610a0f6109c2565b73ffffffffffffffffffffffffffffffffffffffff1614610a65576040517f08c379a0000000000000000000000000000000000000000000000000000000008152600401610a5c9061133d565b60405180910390fd5b3373ffffffffffffffffffffffffffffffffffffffff166108fc4790811502906040515f60405180830381858888f19350505050158015610aa8573d5f803e3d5ffd5b50565b610ab3610c26565b73ffffffffffffffffffffffffffffffffffffffff16610ad16109c2565b73ffffffffffffffffffffffffffffffffffffffff1614610b27576040517f08c379a0000000000000000000000000000000000000000000000000000000008152600401610b1e9061133d565b60405180910390fd5b5f73ffffffffffffffffffffffffffffffffffffffff168173ffffffffffffffffffffffffffffffffffffffff1603610b95576040517f08c379a0000000000000000000000000000000000000000000000000000000008152600401610b8c90611802565b60405180910390fd5b610b9e81610f6b565b50565b5f808273ffffffffffffffffffffffffffffffffffffffff166370a08231306040518263ffffffff1660e01b8152600401610bdc91906112ca565b602060405180830381865afa158015610bf7573d5f803e3d5ffd5b505050506040513d601f19601f82011682018060405250810190610c1b919061136f565b905080915050919050565b5f33905090565b8273ffffffffffffffffffffffffffffffffffffffff1663095ea7b385836040518363ffffffff1660e01b8152600401610c6892919061139a565b6020604051808303815f875af1158015610c84573d5f803e3d5ffd5b505050506040513d601f19601f82011682018060405250810190610ca891906113f6565b506060600267ffffffffffffffff811115610cc657610cc56114e9565b5b604051908082528060200260200182016040528015610cf45781602001602082028036833780820191505090505b50905083815f81518110610d0b57610d0a611516565b5b602002602001019073ffffffffffffffffffffffffffffffffffffffff16908173ffffffffffffffffffffffffffffffffffffffff16815250508281600181518110610d5a57610d59611516565b5b602002602001019073ffffffffffffffffffffffffffffffffffffffff16908173ffffffffffffffffffffffffffffffffffffffff16815250505f61012c42610da39190611820565b90508573ffffffffffffffffffffffffffffffffffffffff166338ed17398460018530866040518663ffffffff1660e01b8152600401610de7959493929190611895565b5f604051808303815f875af1158015610e02573d5f803e3d5ffd5b505050506040513d5f823e3d601f19601f82011682018060405250810190610e2a919061174b565b50505050505050565b610ecb8282604051602401610e49929190611957565b6040516020818303038152906040527f319af333000000000000000000000000000000000000000000000000000000007bffffffffffffffffffffffffffffffffffffffffffffffffffffffff19166020820180517bffffffffffffffffffffffffffffffffffffffffffffffffffffffff838183161783525050505061102c565b5050565b610f678282604051602401610ee5929190611985565b6040516020818303038152906040527f9710a9d0000000000000000000000000000000000000000000000000000000007bffffffffffffffffffffffffffffffffffffffffffffffffffffffff19166020820180517bffffffffffffffffffffffffffffffffffffffffffffffffffffffff838183161783525050505061102c565b5050565b5f805f9054906101000a900473ffffffffffffffffffffffffffffffffffffffff169050815f806101000a81548173ffffffffffffffffffffffffffffffffffffffff021916908373ffffffffffffffffffffffffffffffffffffffff1602179055508173ffffffffffffffffffffffffffffffffffffffff168173ffffffffffffffffffffffffffffffffffffffff167f8be0079c531659141344cd1fd0a4f28419497f9722a3daafe3b4186f6b6457e060405160405180910390a35050565b5f815190505f6a636f6e736f6c652e6c6f679050602083015f808483855afa5050505050565b5f604051905090565b5f80fd5b5f80fd5b5f73ffffffffffffffffffffffffffffffffffffffff82169050919050565b5f61108c82611063565b9050919050565b61109c81611082565b81146110a6575f80fd5b50565b5f813590506110b781611093565b92915050565b5f819050919050565b6110cf816110bd565b81146110d9575f80fd5b50565b5f813590506110ea816110c6565b92915050565b5f805f805f60a086880312156111095761110861105b565b5b5f611116888289016110a9565b9550506020611127888289016110a9565b9450506040611138888289016110a9565b9350506060611149888289016110a9565b925050608061115a888289016110dc565b9150509295509295909350565b611170816110bd565b82525050565b5f6020820190506111895f830184611167565b92915050565b5f602082840312156111a4576111a361105b565b5b5f6111b1848285016110a9565b91505092915050565b5f805f805f805f60e0888a0312156111d5576111d461105b565b5b5f6111e28a828b016110a9565b97505060206111f38a828b016110a9565b96505060406112048a828b016110a9565b95505060606112158a828b016110a9565b94505060806112268a828b016110a9565b93505060a06112378a828b016110a9565b92505060c06112488a828b016110dc565b91505092959891949750929550565b5f805f806080858703121561126f5761126e61105b565b5b5f61127c878288016110a9565b945050602061128d878288016110a9565b935050604061129e878288016110a9565b92505060606112af878288016110dc565b91505092959194509250565b6112c481611082565b82525050565b5f6020820190506112dd5f8301846112bb565b92915050565b5f82825260208201905092915050565b7f4f776e61626c653a2063616c6c6572206973206e6f7420746865206f776e65725f82015250565b5f6113276020836112e3565b9150611332826112f3565b602082019050919050565b5f6020820190508181035f8301526113548161131b565b9050919050565b5f81519050611369816110c6565b92915050565b5f602082840312156113845761138361105b565b5b5f6113918482850161135b565b91505092915050565b5f6040820190506113ad5f8301856112bb565b6113ba6020830184611167565b9392505050565b5f8115159050919050565b6113d5816113c1565b81146113df575f80fd5b50565b5f815190506113f0816113cc565b92915050565b5f6020828403121561140b5761140a61105b565b5b5f611418848285016113e2565b91505092915050565b7f4e487b71000000000000000000000000000000000000000000000000000000005f52601160045260245ffd5b5f611458826110bd565b9150611463836110bd565b925082820390508181111561147b5761147a611421565b5b92915050565b7f54726164652052657665727465642c204e6f2050726f666974204d61646500005f82015250565b5f6114b5601e836112e3565b91506114c082611481565b602082019050919050565b5f6020820190508181035f8301526114e2816114a9565b9050919050565b7f4e487b71000000000000000000000000000000000000000000000000000000005f52604160045260245ffd5b7f4e487b71000000000000000000000000000000000000000000000000000000005f52603260045260245ffd5b5f81519050919050565b5f82825260208201905092915050565b5f819050602082019050919050565b61157581611082565b82525050565b5f611586838361156c565b60208301905092915050565b5f602082019050919050565b5f6115a882611543565b6115b2818561154d565b93506115bd8361155d565b805f5b838110156115ed5781516115d4888261157b565b97506115df83611592565b9250506001810190506115c0565b5085935050505092915050565b5f60408201905061160d5f830185611167565b818103602083015261161f818461159e565b90509392505050565b5f80fd5b5f601f19601f8301169050919050565b6116458261162c565b810181811067ffffffffffffffff82111715611664576116636114e9565b5b80604052505050565b5f611676611052565b9050611682828261163c565b919050565b5f67ffffffffffffffff8211156116a1576116a06114e9565b5b602082029050602081019050919050565b5f80fd5b5f6116c86116c384611687565b61166d565b905080838252602082019050602084028301858111156116eb576116ea6116b2565b5b835b818110156117145780611700888261135b565b8452602084019350506020810190506116ed565b5050509392505050565b5f82601f83011261173257611731611628565b5b81516117428482602086016116b6565b91505092915050565b5f602082840312156117605761175f61105b565b5b5f82015167ffffffffffffffff81111561177d5761177c61105f565b5b6117898482850161171e565b91505092915050565b7f4f776e61626c653a206e6577206f776e657220697320746865207a65726f20615f8201527f6464726573730000000000000000000000000000000000000000000000000000602082015250565b5f6117ec6026836112e3565b91506117f782611792565b604082019050919050565b5f6020820190508181035f830152611819816117e0565b9050919050565b5f61182a826110bd565b9150611835836110bd565b925082820190508082111561184d5761184c611421565b5b92915050565b5f819050919050565b5f819050919050565b5f61187f61187a61187584611853565b61185c565b6110bd565b9050919050565b61188f81611865565b82525050565b5f60a0820190506118a85f830188611167565b6118b56020830187611886565b81810360408301526118c7818661159e565b90506118d660608301856112bb565b6118e36080830184611167565b9695505050505050565b5f81519050919050565b5f5b838110156119145780820151818401526020810190506118f9565b5f8484015250505050565b5f611929826118ed565b61193381856112e3565b93506119438185602086016118f7565b61194c8161162c565b840191505092915050565b5f6040820190508181035f83015261196f818561191f565b905061197e60208301846112bb565b9392505050565b5f6040820190508181035f83015261199d818561191f565b90506119ac6020830184611167565b939250505056fea26469706673582212200676dba80728e6695f7b2c5c76ad1ec1644ea40de7a0b94fcf121c3693470fcc64736f6c63430008150033",
  "immutableReferences": {},
  "source": "//SPDX-License-Identifier: Unlicense\npragma solidity ^0.8.4;\n\nimport \"hardhat/console.sol\";\n\nimport \"@openzeppelin/contracts/access/Ownable.sol\";\n\ninterface IERC20 {\n\tfunction totalSupply() external view returns (uint);\n\tfunction balanceOf(address account) external view returns (uint);\n\tfunction transfer(address recipient, uint amount) external returns (bool);\n\tfunction allowance(address owner, address spender) external view returns (uint);\n\tfunction approve(address spender, uint amount) external returns (bool);\n\tfunction transferFrom(address sender, address recipient, uint amount) external returns (bool);\n\tevent Transfer(address indexed from, address indexed to, uint value);\n\tevent Approval(address indexed owner, address indexed spender, uint value);\n}\n\ninterface IUniswapV2Router {\n  function getAmountsOut(uint256 amountIn, address[] memory path) external view returns (uint256[] memory amounts);\n  function swapExactTokensForTokens(uint256 amountIn, uint256 amountOutMin, address[] calldata path, address to, uint256 deadline) external returns (uint256[] memory amounts);\n}\n\ninterface IUniswapV2Pair {\n  function token0() external view returns (address);\n  function token1() external view returns (address);\n  function swap(uint256 amount0Out,\tuint256 amount1Out,\taddress to,\tbytes calldata data) external;\n}\n\ncontract Arb is Ownable {\n\n\tfunction swap(address router, address _tokenIn, address _tokenOut, uint256 _amount) private {\n\t\tIERC20(_tokenIn).approve(router, _amount);\n\t\taddress[] memory path;\n\t\tpath = new address[](2);\n\t\tpath[0] = _tokenIn;\n\t\tpath[1] = _tokenOut;\n\t\tuint deadline = block.timestamp + 300;\n\t\tIUniswapV2Router(router).swapExactTokensForTokens(_amount, 1, path, address(this), deadline);\n\t}\n\n\tfunction getAmountOutMin(address router, address _tokenIn, address _tokenOut, uint256 _amount) public view returns (uint256) {\n\t\taddress[] memory path;\n\t\tpath = new address[](2);\n\t\tpath[0] = _tokenIn;\n\t\tpath[1] = _tokenOut;\n\t\tconsole.log(\"Router\", router);\n\t\tconsole.log(\"Amount\", _amount);\n\t\tuint256[] memory amountOutMins = IUniswapV2Router(router).getAmountsOut(_amount, path);\n\t\treturn amountOutMins[path.length -1];\n\t}\n\n\tfunction estimateDualDexTrade(address _router1, address _router2, address _token1, address _token2, uint256 _amount) external view returns (uint256) {\n\t\t\tuint256 amtBack1 = getAmountOutMin(_router1, _token1, _token2, _amount);\n\t\t\tuint256 amtBack2 = getAmountOutMin(_router2, _token2, _token1, amtBack1);\n\t\t\treturn amtBack2;\n\t\t}\n\t\t\n\tfunction dualDexTrade(address _router1, address _router2, address _token1, address _token2, uint256 _amount) external onlyOwner {\n\t\tuint startBalance = IERC20(_token1).balanceOf(address(this));\n\t\tuint token2InitialBalance = IERC20(_token2).balanceOf(address(this));\n\t\tswap(_router1,_token1, _token2,_amount);\n\t\tuint token2Balance = IERC20(_token2).balanceOf(address(this));\n\t\tuint tradeableAmount = token2Balance - token2InitialBalance;\n\t\tswap(_router2,_token2, _token1,tradeableAmount);\n\t\tuint endBalance = IERC20(_token1).balanceOf(address(this));\n\t\trequire(endBalance > startBalance, \"Trade Reverted, No Profit Made\");\n\t}\n\n\tfunction estimateTriDexTrade(address _router1, address _router2, address _router3, address _token1, address _token2, address _token3, uint256 _amount) external view returns (uint256) {\n\t\tuint amtBack1 = getAmountOutMin(_router1, _token1, _token2, _amount);\n\t\tuint amtBack2 = getAmountOutMin(_router2, _token2, _token3, amtBack1);\n\t\tuint amtBack3 = getAmountOutMin(_router3, _token3, _token1, amtBack2);\n\t\treturn amtBack3;\n\t}\n\n\tfunction getBalance (address _tokenContractAddress) external view  returns (uint256) {\n\t\tuint balance = IERC20(_tokenContractAddress).balanceOf(address(this));\n\t\treturn balance;\n\t}\n\t\n\tfunction recoverEth() external onlyOwner {\n\t\tpayable(msg.sender).transfer(address(this).balance);\n\t}\n\n\tfunction recoverTokens(address tokenAddress) external onlyOwner {\n\t\tIERC20 token = IERC20(tokenAddress);\n\t\ttoken.transfer(msg.sender, token.balanceOf(address(this)));\n\t}\n\t\n\treceive() external payable {}\n\n}\n",
  "sourcePath": "/Users/justinsacco/Developer Projects/TradingSystems/DEX-Arbitrage/contracts/Arb.sol",
  "compiler": {
    "name": "solc",
    "version": "0.8.21+commit.d9974bed.Emscripten.clang"
  },
  "schemaVersion": "3.4.4",
  "updatedAt": "2023-08-20T18:53:36.226Z",
  "networkType": "ethereum",
  "devdoc": {
    "kind": "dev",
    "methods": {
      "owner()": {
        "details": "Returns the address of the current owner."
      },
      "renounceOwnership()": {
        "details": "Leaves the contract without owner. It will not be possible to call `onlyOwner` functions anymore. Can only be called by the current owner. NOTE: Renouncing ownership will leave the contract without an owner, thereby removing any functionality that is only available to the owner."
      },
      "transferOwnership(address)": {
        "details": "Transfers ownership of the contract to a new account (`newOwner`). Can only be called by the current owner."
      }
    },
    "version": 1
  },
  "userdoc": {
    "kind": "user",
    "methods": {},
    "version": 1
  }
}