{
  "contractName": "InstaArb",
  "abi": [
    {
      "anonymous": false,
      "inputs": [
        {
          "indexed": true,
          "internalType": "address",
          "name": "previousOwner",
          "type": "address"
        },
        {
          "indexed": true,
          "internalType": "address",
          "name": "newOwner",
          "type": "address"
        }
      ],
      "name": "OwnershipTransferred",
      "type": "event"
    },
    {
      "inputs": [],
      "name": "owner",
      "outputs": [
        {
          "internalType": "address",
          "name": "",
          "type": "address"
        }
      ],
      "stateMutability": "view",
      "type": "function"
    },
    {
      "inputs": [],
      "name": "renounceOwnership",
      "outputs": [],
      "stateMutability": "nonpayable",
      "type": "function"
    },
    {
      "inputs": [
        {
          "internalType": "uint256",
          "name": "",
          "type": "uint256"
        }
      ],
      "name": "routers",
      "outputs": [
        {
          "internalType": "address",
          "name": "",
          "type": "address"
        }
      ],
      "stateMutability": "view",
      "type": "function"
    },
    {
      "inputs": [
        {
          "internalType": "uint256",
          "name": "",
          "type": "uint256"
        }
      ],
      "name": "stables",
      "outputs": [
        {
          "internalType": "address",
          "name": "",
          "type": "address"
        }
      ],
      "stateMutability": "view",
      "type": "function"
    },
    {
      "inputs": [
        {
          "internalType": "uint256",
          "name": "",
          "type": "uint256"
        }
      ],
      "name": "tokens",
      "outputs": [
        {
          "internalType": "address",
          "name": "",
          "type": "address"
        }
      ],
      "stateMutability": "view",
      "type": "function"
    },
    {
      "inputs": [
        {
          "internalType": "address",
          "name": "newOwner",
          "type": "address"
        }
      ],
      "name": "transferOwnership",
      "outputs": [],
      "stateMutability": "nonpayable",
      "type": "function"
    },
    {
      "inputs": [
        {
          "internalType": "address[]",
          "name": "_routers",
          "type": "address[]"
        }
      ],
      "name": "addRouters",
      "outputs": [],
      "stateMutability": "nonpayable",
      "type": "function"
    },
    {
      "inputs": [
        {
          "internalType": "address[]",
          "name": "_tokens",
          "type": "address[]"
        }
      ],
      "name": "addTokens",
      "outputs": [],
      "stateMutability": "nonpayable",
      "type": "function"
    },
    {
      "inputs": [
        {
          "internalType": "address[]",
          "name": "_stables",
          "type": "address[]"
        }
      ],
      "name": "addStables",
      "outputs": [],
      "stateMutability": "nonpayable",
      "type": "function"
    },
    {
      "inputs": [
        {
          "internalType": "address",
          "name": "router",
          "type": "address"
        },
        {
          "internalType": "address",
          "name": "_tokenIn",
          "type": "address"
        },
        {
          "internalType": "address",
          "name": "_tokenOut",
          "type": "address"
        },
        {
          "internalType": "uint256",
          "name": "_amount",
          "type": "uint256"
        }
      ],
      "name": "getAmountOutMin",
      "outputs": [
        {
          "internalType": "uint256",
          "name": "",
          "type": "uint256"
        }
      ],
      "stateMutability": "view",
      "type": "function"
    },
    {
      "inputs": [
        {
          "internalType": "address",
          "name": "_router1",
          "type": "address"
        },
        {
          "internalType": "address",
          "name": "_router2",
          "type": "address"
        },
        {
          "internalType": "address",
          "name": "_token1",
          "type": "address"
        },
        {
          "internalType": "address",
          "name": "_token2",
          "type": "address"
        },
        {
          "internalType": "uint256",
          "name": "_amount",
          "type": "uint256"
        }
      ],
      "name": "estimateDualDexTrade",
      "outputs": [
        {
          "internalType": "uint256",
          "name": "",
          "type": "uint256"
        }
      ],
      "stateMutability": "view",
      "type": "function"
    },
    {
      "inputs": [
        {
          "internalType": "address",
          "name": "_router1",
          "type": "address"
        },
        {
          "internalType": "address",
          "name": "_router2",
          "type": "address"
        },
        {
          "internalType": "address",
          "name": "_token1",
          "type": "address"
        },
        {
          "internalType": "address",
          "name": "_token2",
          "type": "address"
        },
        {
          "internalType": "uint256",
          "name": "_amount",
          "type": "uint256"
        }
      ],
      "name": "dualDexTrade",
      "outputs": [],
      "stateMutability": "nonpayable",
      "type": "function"
    },
    {
      "inputs": [
        {
          "internalType": "address",
          "name": "_router",
          "type": "address"
        },
        {
          "internalType": "address",
          "name": "_baseAsset",
          "type": "address"
        },
        {
          "internalType": "uint256",
          "name": "_amount",
          "type": "uint256"
        }
      ],
      "name": "instaSearch",
      "outputs": [
        {
          "internalType": "uint256",
          "name": "",
          "type": "uint256"
        },
        {
          "internalType": "address",
          "name": "",
          "type": "address"
        },
        {
          "internalType": "address",
          "name": "",
          "type": "address"
        },
        {
          "internalType": "address",
          "name": "",
          "type": "address"
        }
      ],
      "stateMutability": "view",
      "type": "function"
    },
    {
      "inputs": [
        {
          "internalType": "address",
          "name": "_router1",
          "type": "address"
        },
        {
          "internalType": "address",
          "name": "_token1",
          "type": "address"
        },
        {
          "internalType": "address",
          "name": "_token2",
          "type": "address"
        },
        {
          "internalType": "address",
          "name": "_token3",
          "type": "address"
        },
        {
          "internalType": "address",
          "name": "_token4",
          "type": "address"
        },
        {
          "internalType": "uint256",
          "name": "_amount",
          "type": "uint256"
        }
      ],
      "name": "instaTrade",
      "outputs": [],
      "stateMutability": "nonpayable",
      "type": "function"
    },
    {
      "inputs": [
        {
          "internalType": "address",
          "name": "_tokenContractAddress",
          "type": "address"
        }
      ],
      "name": "getBalance",
      "outputs": [
        {
          "internalType": "uint256",
          "name": "",
          "type": "uint256"
        }
      ],
      "stateMutability": "view",
      "type": "function"
    },
    {
      "inputs": [],
      "name": "recoverEth",
      "outputs": [],
      "stateMutability": "nonpayable",
      "type": "function"
    },
    {
      "inputs": [
        {
          "internalType": "address",
          "name": "tokenAddress",
          "type": "address"
        }
      ],
      "name": "recoverTokens",
      "outputs": [],
      "stateMutability": "nonpayable",
      "type": "function"
    }
  ],
  "bytecode": "0x60806040523480156200001157600080fd5b5062000032620000266200003860201b60201c565b6200004060201b60201c565b62000104565b600033905090565b60008060009054906101000a900473ffffffffffffffffffffffffffffffffffffffff169050816000806101000a81548173ffffffffffffffffffffffffffffffffffffffff021916908373ffffffffffffffffffffffffffffffffffffffff1602179055508173ffffffffffffffffffffffffffffffffffffffff168173ffffffffffffffffffffffffffffffffffffffff167f8be0079c531659141344cd1fd0a4f28419497f9722a3daafe3b4186f6b6457e060405160405180910390a35050565b6126a480620001146000396000f3fe608060405234801561001057600080fd5b506004361061010b5760003560e01c8063542c8f35116100a2578063bcdb446b11610071578063bcdb446b146102b4578063c58f9ce4146102be578063dece9591146102da578063f2fde38b1461030d578063f8b2cb4f146103295761010b565b8063542c8f3514610240578063643aadb71461025c578063715018a61461028c5780638da5cb5b146102965761010b565b80634ae05c7d116100de5780634ae05c7d146101a85780634b01f85e146101c45780634e9c1118146101e05780634f64b2be146102105761010b565b8063068e7ca11461011057806316114acd146101405780631aa513181461015c57806343cf6f2414610178575b600080fd5b61012a60048036038101906101259190611c67565b610359565b6040516101379190611cf1565b60405180910390f35b61015a60048036038101906101559190611d0c565b610388565b005b61017660048036038101906101719190611c67565b610505565b005b610192600480360381019061018d9190611d39565b6107ef565b60405161019f9190611cf1565b60405180910390f35b6101c260048036038101906101bd9190611e05565b610997565b005b6101de60048036038101906101d99190611e05565b610ac3565b005b6101fa60048036038101906101f59190611e52565b610bef565b6040516102079190611e8e565b60405180910390f35b61022a60048036038101906102259190611e52565b610c2e565b6040516102379190611e8e565b60405180910390f35b61025a60048036038101906102559190611ea9565b610c6d565b005b61027660048036038101906102719190611e52565b611176565b6040516102839190611e8e565b60405180910390f35b6102946111b5565b005b61029e61123d565b6040516102ab9190611e8e565b60405180910390f35b6102bc611266565b005b6102d860048036038101906102d39190611e05565b61132b565b005b6102f460048036038101906102ef9190611f36565b611457565b6040516103049493929190611f89565b60405180910390f35b61032760048036038101906103229190611d0c565b611764565b005b610343600480360381019061033e9190611d0c565b61185b565b6040516103509190611cf1565b60405180910390f35b600080610368878686866107ef565b90506000610378878688856107ef565b9050809250505095945050505050565b6103906118e3565b73ffffffffffffffffffffffffffffffffffffffff166103ae61123d565b73ffffffffffffffffffffffffffffffffffffffff1614610404576040517f08c379a00000000000000000000000000000000000000000000000000000000081526004016103fb9061202b565b60405180910390fd5b60008190508073ffffffffffffffffffffffffffffffffffffffff1663a9059cbb338373ffffffffffffffffffffffffffffffffffffffff166370a08231306040518263ffffffff1660e01b815260040161045f9190611e8e565b602060405180830381865afa15801561047c573d6000803e3d6000fd5b505050506040513d601f19601f820116820180604052508101906104a09190612060565b6040518363ffffffff1660e01b81526004016104bd92919061208d565b6020604051808303816000875af11580156104dc573d6000803e3d6000fd5b505050506040513d601f19601f8201168201806040525081019061050091906120ee565b505050565b61050d6118e3565b73ffffffffffffffffffffffffffffffffffffffff1661052b61123d565b73ffffffffffffffffffffffffffffffffffffffff1614610581576040517f08c379a00000000000000000000000000000000000000000000000000000000081526004016105789061202b565b60405180910390fd5b60008373ffffffffffffffffffffffffffffffffffffffff166370a08231306040518263ffffffff1660e01b81526004016105bc9190611e8e565b602060405180830381865afa1580156105d9573d6000803e3d6000fd5b505050506040513d601f19601f820116820180604052508101906105fd9190612060565b905060008373ffffffffffffffffffffffffffffffffffffffff166370a08231306040518263ffffffff1660e01b815260040161063a9190611e8e565b602060405180830381865afa158015610657573d6000803e3d6000fd5b505050506040513d601f19601f8201168201806040525081019061067b9190612060565b9050610689878686866118eb565b60008473ffffffffffffffffffffffffffffffffffffffff166370a08231306040518263ffffffff1660e01b81526004016106c49190611e8e565b602060405180830381865afa1580156106e1573d6000803e3d6000fd5b505050506040513d601f19601f820116820180604052508101906107059190612060565b905060008282610715919061214a565b9050610723888789846118eb565b60008773ffffffffffffffffffffffffffffffffffffffff166370a08231306040518263ffffffff1660e01b815260040161075e9190611e8e565b602060405180830381865afa15801561077b573d6000803e3d6000fd5b505050506040513d601f19601f8201168201806040525081019061079f9190612060565b90508481116107e3576040517f08c379a00000000000000000000000000000000000000000000000000000000081526004016107da906121ca565b60405180910390fd5b50505050505050505050565b60006060600267ffffffffffffffff81111561080e5761080d6121ea565b5b60405190808252806020026020018201604052801561083c5781602001602082028036833780820191505090505b509050848160008151811061085457610853612219565b5b602002602001019073ffffffffffffffffffffffffffffffffffffffff16908173ffffffffffffffffffffffffffffffffffffffff168152505083816001815181106108a3576108a2612219565b5b602002602001019073ffffffffffffffffffffffffffffffffffffffff16908173ffffffffffffffffffffffffffffffffffffffff168152505060008673ffffffffffffffffffffffffffffffffffffffff1663d06ca61f85846040518363ffffffff1660e01b815260040161091a929190612306565b600060405180830381865afa92505050801561095957506040513d6000823e3d601f19601f820116820180604052508101906109569190612456565b60015b1561098a57806001845161096d919061214a565b8151811061097e5761097d612219565b5b60200260200101519150505b8092505050949350505050565b61099f6118e3565b73ffffffffffffffffffffffffffffffffffffffff166109bd61123d565b73ffffffffffffffffffffffffffffffffffffffff1614610a13576040517f08c379a0000000000000000000000000000000000000000000000000000000008152600401610a0a9061202b565b60405180910390fd5b60005b82829050811015610abe576002838383818110610a3657610a35612219565b5b9050602002016020810190610a4b9190611d0c565b9080600181540180825580915050600190039060005260206000200160009091909190916101000a81548173ffffffffffffffffffffffffffffffffffffffff021916908373ffffffffffffffffffffffffffffffffffffffff1602179055508080610ab69061249f565b915050610a16565b505050565b610acb6118e3565b73ffffffffffffffffffffffffffffffffffffffff16610ae961123d565b73ffffffffffffffffffffffffffffffffffffffff1614610b3f576040517f08c379a0000000000000000000000000000000000000000000000000000000008152600401610b369061202b565b60405180910390fd5b60005b82829050811015610bea576001838383818110610b6257610b61612219565b5b9050602002016020810190610b779190611d0c565b9080600181540180825580915050600190039060005260206000200160009091909190916101000a81548173ffffffffffffffffffffffffffffffffffffffff021916908373ffffffffffffffffffffffffffffffffffffffff1602179055508080610be29061249f565b915050610b42565b505050565b60018181548110610bff57600080fd5b906000526020600020016000915054906101000a900473ffffffffffffffffffffffffffffffffffffffff1681565b60028181548110610c3e57600080fd5b906000526020600020016000915054906101000a900473ffffffffffffffffffffffffffffffffffffffff1681565b610c756118e3565b73ffffffffffffffffffffffffffffffffffffffff16610c9361123d565b73ffffffffffffffffffffffffffffffffffffffff1614610ce9576040517f08c379a0000000000000000000000000000000000000000000000000000000008152600401610ce09061202b565b60405180910390fd5b60008573ffffffffffffffffffffffffffffffffffffffff166370a08231306040518263ffffffff1660e01b8152600401610d249190611e8e565b602060405180830381865afa158015610d41573d6000803e3d6000fd5b505050506040513d601f19601f82011682018060405250810190610d659190612060565b905060008573ffffffffffffffffffffffffffffffffffffffff166370a08231306040518263ffffffff1660e01b8152600401610da29190611e8e565b602060405180830381865afa158015610dbf573d6000803e3d6000fd5b505050506040513d601f19601f82011682018060405250810190610de39190612060565b905060008573ffffffffffffffffffffffffffffffffffffffff166370a08231306040518263ffffffff1660e01b8152600401610e209190611e8e565b602060405180830381865afa158015610e3d573d6000803e3d6000fd5b505050506040513d601f19601f82011682018060405250810190610e619190612060565b905060008573ffffffffffffffffffffffffffffffffffffffff166370a08231306040518263ffffffff1660e01b8152600401610e9e9190611e8e565b602060405180830381865afa158015610ebb573d6000803e3d6000fd5b505050506040513d601f19601f82011682018060405250810190610edf9190612060565b9050610eed8a8a8a886118eb565b6000838973ffffffffffffffffffffffffffffffffffffffff166370a08231306040518263ffffffff1660e01b8152600401610f299190611e8e565b602060405180830381865afa158015610f46573d6000803e3d6000fd5b505050506040513d601f19601f82011682018060405250810190610f6a9190612060565b610f74919061214a565b9050610f828b8a8a846118eb565b6000838973ffffffffffffffffffffffffffffffffffffffff166370a08231306040518263ffffffff1660e01b8152600401610fbe9190611e8e565b602060405180830381865afa158015610fdb573d6000803e3d6000fd5b505050506040513d601f19601f82011682018060405250810190610fff9190612060565b611009919061214a565b90506110178c8a8a846118eb565b6000838973ffffffffffffffffffffffffffffffffffffffff166370a08231306040518263ffffffff1660e01b81526004016110539190611e8e565b602060405180830381865afa158015611070573d6000803e3d6000fd5b505050506040513d601f19601f820116820180604052508101906110949190612060565b61109e919061214a565b90506110ac8d8a8e846118eb565b868c73ffffffffffffffffffffffffffffffffffffffff166370a08231306040518263ffffffff1660e01b81526004016110e69190611e8e565b602060405180830381865afa158015611103573d6000803e3d6000fd5b505050506040513d601f19601f820116820180604052508101906111279190612060565b11611167576040517f08c379a000000000000000000000000000000000000000000000000000000000815260040161115e906121ca565b60405180910390fd5b50505050505050505050505050565b6003818154811061118657600080fd5b906000526020600020016000915054906101000a900473ffffffffffffffffffffffffffffffffffffffff1681565b6111bd6118e3565b73ffffffffffffffffffffffffffffffffffffffff166111db61123d565b73ffffffffffffffffffffffffffffffffffffffff1614611231576040517f08c379a00000000000000000000000000000000000000000000000000000000081526004016112289061202b565b60405180910390fd5b61123b6000611afb565b565b60008060009054906101000a900473ffffffffffffffffffffffffffffffffffffffff16905090565b61126e6118e3565b73ffffffffffffffffffffffffffffffffffffffff1661128c61123d565b73ffffffffffffffffffffffffffffffffffffffff16146112e2576040517f08c379a00000000000000000000000000000000000000000000000000000000081526004016112d99061202b565b60405180910390fd5b3373ffffffffffffffffffffffffffffffffffffffff166108fc479081150290604051600060405180830381858888f19350505050158015611328573d6000803e3d6000fd5b50565b6113336118e3565b73ffffffffffffffffffffffffffffffffffffffff1661135161123d565b73ffffffffffffffffffffffffffffffffffffffff16146113a7576040517f08c379a000000000000000000000000000000000000000000000000000000000815260040161139e9061202b565b60405180910390fd5b60005b828290508110156114525760038383838181106113ca576113c9612219565b5b90506020020160208101906113df9190611d0c565b9080600181540180825580915050600190039060005260206000200160009091909190916101000a81548173ffffffffffffffffffffffffffffffffffffffff021916908373ffffffffffffffffffffffffffffffffffffffff160217905550808061144a9061249f565b9150506113aa565b505050565b60008060008060008060008060005b60028054905081101561174a5760005b6003805490508110156117365760005b600280549050811015611722576114dd8e8e600286815481106114ac576114ab612219565b5b9060005260206000200160009054906101000a900473ffffffffffffffffffffffffffffffffffffffff168f6107ef565b96506115678e600285815481106114f7576114f6612219565b5b9060005260206000200160009054906101000a900473ffffffffffffffffffffffffffffffffffffffff166003858154811061153657611535612219565b5b9060005260206000200160009054906101000a900473ffffffffffffffffffffffffffffffffffffffff168a6107ef565b96506115f18e6003848154811061158157611580612219565b5b9060005260206000200160009054906101000a900473ffffffffffffffffffffffffffffffffffffffff16600284815481106115c0576115bf612219565b5b9060005260206000200160009054906101000a900473ffffffffffffffffffffffffffffffffffffffff168a6107ef565b965061163d8e6002838154811061160b5761160a612219565b5b9060005260206000200160009054906101000a900473ffffffffffffffffffffffffffffffffffffffff168f8a6107ef565b96508b87111561170f576002838154811061165b5761165a612219565b5b9060005260206000200160009054906101000a900473ffffffffffffffffffffffffffffffffffffffff1695506002828154811061169c5761169b612219565b5b9060005260206000200160009054906101000a900473ffffffffffffffffffffffffffffffffffffffff169450600281815481106116dd576116dc612219565b5b9060005260206000200160009054906101000a900473ffffffffffffffffffffffffffffffffffffffff169350611722565b808061171a9061249f565b915050611486565b50808061172e9061249f565b915050611476565b5080806117429061249f565b915050611466565b508383838397509750975097505050505093509350935093565b61176c6118e3565b73ffffffffffffffffffffffffffffffffffffffff1661178a61123d565b73ffffffffffffffffffffffffffffffffffffffff16146117e0576040517f08c379a00000000000000000000000000000000000000000000000000000000081526004016117d79061202b565b60405180910390fd5b600073ffffffffffffffffffffffffffffffffffffffff168173ffffffffffffffffffffffffffffffffffffffff160361184f576040517f08c379a000000000000000000000000000000000000000000000000000000000815260040161184690612559565b60405180910390fd5b61185881611afb565b50565b6000808273ffffffffffffffffffffffffffffffffffffffff166370a08231306040518263ffffffff1660e01b81526004016118979190611e8e565b602060405180830381865afa1580156118b4573d6000803e3d6000fd5b505050506040513d601f19601f820116820180604052508101906118d89190612060565b905080915050919050565b600033905090565b8273ffffffffffffffffffffffffffffffffffffffff1663095ea7b385836040518363ffffffff1660e01b815260040161192692919061208d565b6020604051808303816000875af1158015611945573d6000803e3d6000fd5b505050506040513d601f19601f8201168201806040525081019061196991906120ee565b506060600267ffffffffffffffff811115611987576119866121ea565b5b6040519080825280602002602001820160405280156119b55781602001602082028036833780820191505090505b50905083816000815181106119cd576119cc612219565b5b602002602001019073ffffffffffffffffffffffffffffffffffffffff16908173ffffffffffffffffffffffffffffffffffffffff16815250508281600181518110611a1c57611a1b612219565b5b602002602001019073ffffffffffffffffffffffffffffffffffffffff16908173ffffffffffffffffffffffffffffffffffffffff1681525050600061012c42611a669190612579565b90508573ffffffffffffffffffffffffffffffffffffffff166338ed17398460018530866040518663ffffffff1660e01b8152600401611aaa959493929190612614565b6000604051808303816000875af1158015611ac9573d6000803e3d6000fd5b505050506040513d6000823e3d601f19601f82011682018060405250810190611af29190612456565b50505050505050565b60008060009054906101000a900473ffffffffffffffffffffffffffffffffffffffff169050816000806101000a81548173ffffffffffffffffffffffffffffffffffffffff021916908373ffffffffffffffffffffffffffffffffffffffff1602179055508173ffffffffffffffffffffffffffffffffffffffff168173ffffffffffffffffffffffffffffffffffffffff167f8be0079c531659141344cd1fd0a4f28419497f9722a3daafe3b4186f6b6457e060405160405180910390a35050565b6000604051905090565b600080fd5b600080fd5b600073ffffffffffffffffffffffffffffffffffffffff82169050919050565b6000611bfe82611bd3565b9050919050565b611c0e81611bf3565b8114611c1957600080fd5b50565b600081359050611c2b81611c05565b92915050565b6000819050919050565b611c4481611c31565b8114611c4f57600080fd5b50565b600081359050611c6181611c3b565b92915050565b600080600080600060a08688031215611c8357611c82611bc9565b5b6000611c9188828901611c1c565b9550506020611ca288828901611c1c565b9450506040611cb388828901611c1c565b9350506060611cc488828901611c1c565b9250506080611cd588828901611c52565b9150509295509295909350565b611ceb81611c31565b82525050565b6000602082019050611d066000830184611ce2565b92915050565b600060208284031215611d2257611d21611bc9565b5b6000611d3084828501611c1c565b91505092915050565b60008060008060808587031215611d5357611d52611bc9565b5b6000611d6187828801611c1c565b9450506020611d7287828801611c1c565b9350506040611d8387828801611c1c565b9250506060611d9487828801611c52565b91505092959194509250565b600080fd5b600080fd5b600080fd5b60008083601f840112611dc557611dc4611da0565b5b8235905067ffffffffffffffff811115611de257611de1611da5565b5b602083019150836020820283011115611dfe57611dfd611daa565b5b9250929050565b60008060208385031215611e1c57611e1b611bc9565b5b600083013567ffffffffffffffff811115611e3a57611e39611bce565b5b611e4685828601611daf565b92509250509250929050565b600060208284031215611e6857611e67611bc9565b5b6000611e7684828501611c52565b91505092915050565b611e8881611bf3565b82525050565b6000602082019050611ea36000830184611e7f565b92915050565b60008060008060008060c08789031215611ec657611ec5611bc9565b5b6000611ed489828a01611c1c565b9650506020611ee589828a01611c1c565b9550506040611ef689828a01611c1c565b9450506060611f0789828a01611c1c565b9350506080611f1889828a01611c1c565b92505060a0611f2989828a01611c52565b9150509295509295509295565b600080600060608486031215611f4f57611f4e611bc9565b5b6000611f5d86828701611c1c565b9350506020611f6e86828701611c1c565b9250506040611f7f86828701611c52565b9150509250925092565b6000608082019050611f9e6000830187611ce2565b611fab6020830186611e7f565b611fb86040830185611e7f565b611fc56060830184611e7f565b95945050505050565b600082825260208201905092915050565b7f4f776e61626c653a2063616c6c6572206973206e6f7420746865206f776e6572600082015250565b6000612015602083611fce565b915061202082611fdf565b602082019050919050565b6000602082019050818103600083015261204481612008565b9050919050565b60008151905061205a81611c3b565b92915050565b60006020828403121561207657612075611bc9565b5b60006120848482850161204b565b91505092915050565b60006040820190506120a26000830185611e7f565b6120af6020830184611ce2565b9392505050565b60008115159050919050565b6120cb816120b6565b81146120d657600080fd5b50565b6000815190506120e8816120c2565b92915050565b60006020828403121561210457612103611bc9565b5b6000612112848285016120d9565b91505092915050565b7f4e487b7100000000000000000000000000000000000000000000000000000000600052601160045260246000fd5b600061215582611c31565b915061216083611c31565b9250828210156121735761217261211b565b5b828203905092915050565b7f54726164652052657665727465642c204e6f2050726f666974204d6164650000600082015250565b60006121b4601e83611fce565b91506121bf8261217e565b602082019050919050565b600060208201905081810360008301526121e3816121a7565b9050919050565b7f4e487b7100000000000000000000000000000000000000000000000000000000600052604160045260246000fd5b7f4e487b7100000000000000000000000000000000000000000000000000000000600052603260045260246000fd5b600081519050919050565b600082825260208201905092915050565b6000819050602082019050919050565b61227d81611bf3565b82525050565b600061228f8383612274565b60208301905092915050565b6000602082019050919050565b60006122b382612248565b6122bd8185612253565b93506122c883612264565b8060005b838110156122f95781516122e08882612283565b97506122eb8361229b565b9250506001810190506122cc565b5085935050505092915050565b600060408201905061231b6000830185611ce2565b818103602083015261232d81846122a8565b90509392505050565b6000601f19601f8301169050919050565b61235082612336565b810181811067ffffffffffffffff8211171561236f5761236e6121ea565b5b80604052505050565b6000612382611bbf565b905061238e8282612347565b919050565b600067ffffffffffffffff8211156123ae576123ad6121ea565b5b602082029050602081019050919050565b60006123d26123cd84612393565b612378565b905080838252602082019050602084028301858111156123f5576123f4611daa565b5b835b8181101561241e578061240a888261204b565b8452602084019350506020810190506123f7565b5050509392505050565b600082601f83011261243d5761243c611da0565b5b815161244d8482602086016123bf565b91505092915050565b60006020828403121561246c5761246b611bc9565b5b600082015167ffffffffffffffff81111561248a57612489611bce565b5b61249684828501612428565b91505092915050565b60006124aa82611c31565b91507fffffffffffffffffffffffffffffffffffffffffffffffffffffffffffffffff82036124dc576124db61211b565b5b600182019050919050565b7f4f776e61626c653a206e6577206f776e657220697320746865207a65726f206160008201527f6464726573730000000000000000000000000000000000000000000000000000602082015250565b6000612543602683611fce565b915061254e826124e7565b604082019050919050565b6000602082019050818103600083015261257281612536565b9050919050565b600061258482611c31565b915061258f83611c31565b9250827fffffffffffffffffffffffffffffffffffffffffffffffffffffffffffffffff038211156125c4576125c361211b565b5b828201905092915050565b6000819050919050565b6000819050919050565b60006125fe6125f96125f4846125cf565b6125d9565b611c31565b9050919050565b61260e816125e3565b82525050565b600060a0820190506126296000830188611ce2565b6126366020830187612605565b818103604083015261264881866122a8565b90506126576060830185611e7f565b6126646080830184611ce2565b969550505050505056fea264697066735822122050093bfd1a008eebfe90663236c5d17b0e6d02ad8b7c30b8514f64ca8d96223d64736f6c634300080d0033",
  "immutableReferences": {},
  "source": "//SPDX-License-Identifier: Unlicense\npragma solidity ^0.8.4;\n\nimport \"hardhat/console.sol\";\n\nimport \"@openzeppelin/contracts/access/Ownable.sol\";\n\ninterface IERC20 {\n  function totalSupply() external view returns (uint);\n  function balanceOf(address account) external view returns (uint);\n  function transfer(address recipient, uint amount) external returns (bool);\n  function allowance(address owner, address spender) external view returns (uint);\n  function approve(address spender, uint amount) external returns (bool);\n  function transferFrom(address sender, address recipient, uint amount) external returns (bool);\n  event Transfer(address indexed from, address indexed to, uint value);\n  event Approval(address indexed owner, address indexed spender, uint value);\n}\n\ninterface IUniswapV2Router {\n  function getAmountsOut(uint256 amountIn, address[] memory path) external view returns (uint256[] memory amounts);\n  function swapExactTokensForTokens(uint256 amountIn, uint256 amountOutMin, address[] calldata path, address to, uint256 deadline) external returns (uint256[] memory amounts);\n}\n\ninterface IUniswapV2Pair {\n  function token0() external view returns (address);\n  function token1() external view returns (address);\n  function swap(uint256 amount0Out,\tuint256 amount1Out,\taddress to,\tbytes calldata data) external;\n}\n\ncontract InstaArb is Ownable {\n\n  address [] public routers;\n  address [] public tokens;\n  address [] public stables;\n\n  function addRouters(address[] calldata _routers) external onlyOwner {\n    for (uint i=0; i<_routers.length; i++) {\n      routers.push(_routers[i]);\n    }\n  }\n\n  function addTokens(address[] calldata _tokens) external onlyOwner {\n    for (uint i=0; i<_tokens.length; i++) {\n      tokens.push(_tokens[i]);\n    }\n  }\n\n  function addStables(address[] calldata _stables) external onlyOwner {\n    for (uint i=0; i<_stables.length; i++) {\n      stables.push(_stables[i]);\n    }\n  }\n\n  function swap(address router, address _tokenIn, address _tokenOut, uint256 _amount) private {\n    IERC20(_tokenIn).approve(router, _amount);\n    address[] memory path;\n    path = new address[](2);\n    path[0] = _tokenIn;\n    path[1] = _tokenOut;\n    uint deadline = block.timestamp + 300;\n    IUniswapV2Router(router).swapExactTokensForTokens(_amount, 1, path, address(this), deadline);\n  }\n\n   function getAmountOutMin(address router, address _tokenIn, address _tokenOut, uint256 _amount) public view returns (uint256 ) {\n    address[] memory path;\n    path = new address[](2);\n    path[0] = _tokenIn;\n    path[1] = _tokenOut;\n    uint256 result = 0;\n    try IUniswapV2Router(router).getAmountsOut(_amount, path) returns (uint256[] memory amountOutMins) {\n      result = amountOutMins[path.length -1];\n    } catch {\n    }\n    return result;\n  }\n\n  function estimateDualDexTrade(address _router1, address _router2, address _token1, address _token2, uint256 _amount) external view returns (uint256) {\n    uint256 amtBack1 = getAmountOutMin(_router1, _token1, _token2, _amount);\n    uint256 amtBack2 = getAmountOutMin(_router2, _token2, _token1, amtBack1);\n    return amtBack2;\n  }\n  \n  function dualDexTrade(address _router1, address _router2, address _token1, address _token2, uint256 _amount) external onlyOwner {\n    uint startBalance = IERC20(_token1).balanceOf(address(this));\n    uint token2InitialBalance = IERC20(_token2).balanceOf(address(this));\n    swap(_router1,_token1, _token2,_amount);\n    uint token2Balance = IERC20(_token2).balanceOf(address(this));\n    uint tradeableAmount = token2Balance - token2InitialBalance;\n    swap(_router2,_token2, _token1,tradeableAmount);\n    uint endBalance = IERC20(_token1).balanceOf(address(this));\n    require(endBalance > startBalance, \"Trade Reverted, No Profit Made\");\n  }\n\n  /*\n    Base Asset > Altcoin > Stablecoin > Altcoin > Base Asset\n  */ \n  function instaSearch(address _router, address _baseAsset, uint256 _amount) external view returns (uint256,address,address,address) {\n    uint256 amtBack;\n    address token1;\n    address token2;\n    address token3;\n    for (uint i1=0; i1<tokens.length; i1++) {\n      for (uint i2=0; i2<stables.length; i2++) {\n        for (uint i3=0; i3<tokens.length; i3++) {\n          amtBack = getAmountOutMin(_router, _baseAsset, tokens[i1], _amount);\n          amtBack = getAmountOutMin(_router, tokens[i1], stables[i2], amtBack);\n          amtBack = getAmountOutMin(_router, stables[i2], tokens[i3], amtBack);\n          amtBack = getAmountOutMin(_router, tokens[i3], _baseAsset, amtBack);\n          if (amtBack > _amount) {\n            token1 = tokens[i1];\n            token2 = tokens[i2];\n            token3 = tokens[i3];\n            break;\n          }\n        }\n      }\n    }\n    return (amtBack,token1,token2,token3);\n  }\n\n  function instaTrade(address _router1, address _token1, address _token2, address _token3, address _token4, uint256 _amount) external onlyOwner {\n    uint startBalance = IERC20(_token1).balanceOf(address(this));\n    uint token2InitialBalance = IERC20(_token2).balanceOf(address(this));\n    uint token3InitialBalance = IERC20(_token3).balanceOf(address(this));\n    uint token4InitialBalance = IERC20(_token4).balanceOf(address(this));\n    swap(_router1,_token1, _token2, _amount);\n    uint tradeableAmount2 = IERC20(_token2).balanceOf(address(this)) - token2InitialBalance;\n    swap(_router1,_token2, _token3, tradeableAmount2);\n    uint tradeableAmount3 = IERC20(_token3).balanceOf(address(this)) - token3InitialBalance;\n    swap(_router1,_token3, _token4, tradeableAmount3);\n    uint tradeableAmount4 = IERC20(_token4).balanceOf(address(this)) - token4InitialBalance;\n    swap(_router1,_token4, _token1, tradeableAmount4);\n    require(IERC20(_token1).balanceOf(address(this)) > startBalance, \"Trade Reverted, No Profit Made\");\n  }\n\n  function getBalance (address _tokenContractAddress) external view  returns (uint256) {\n    uint balance = IERC20(_tokenContractAddress).balanceOf(address(this));\n    return balance;\n  }\n  \n  function recoverEth() external onlyOwner {\n    payable(msg.sender).transfer(address(this).balance);\n  }\n\n  function recoverTokens(address tokenAddress) external onlyOwner {\n    IERC20 token = IERC20(tokenAddress);\n    token.transfer(msg.sender, token.balanceOf(address(this)));\n  }\n\n}\n",
  "sourcePath": "/Users/justinsacco/Developer Projects/TradingSystems/DEX-Arbitrage/contracts/InstaArb.sol",
  "compiler": {
    "name": "solc",
    "version": "0.8.13+commit.abaa5c0e.Emscripten.clang"
  },
  "schemaVersion": "3.4.4",
  "updatedAt": "2023-09-21T23:53:19.467Z",
  "devdoc": {
    "kind": "dev",
    "methods": {
      "owner()": {
        "details": "Returns the address of the current owner."
      },
      "renounceOwnership()": {
        "details": "Leaves the contract without owner. It will not be possible to call `onlyOwner` functions anymore. Can only be called by the current owner. NOTE: Renouncing ownership will leave the contract without an owner, thereby removing any functionality that is only available to the owner."
      },
      "transferOwnership(address)": {
        "details": "Transfers ownership of the contract to a new account (`newOwner`). Can only be called by the current owner."
      }
    },
    "version": 1
  },
  "userdoc": {
    "kind": "user",
    "methods": {},
    "version": 1
  }
}