{
  "contractName": "InstaArb",
  "abi": [
    {
      "anonymous": false,
      "inputs": [
        {
          "indexed": true,
          "internalType": "address",
          "name": "previousOwner",
          "type": "address"
        },
        {
          "indexed": true,
          "internalType": "address",
          "name": "newOwner",
          "type": "address"
        }
      ],
      "name": "OwnershipTransferred",
      "type": "event"
    },
    {
      "inputs": [],
      "name": "owner",
      "outputs": [
        {
          "internalType": "address",
          "name": "",
          "type": "address"
        }
      ],
      "stateMutability": "view",
      "type": "function"
    },
    {
      "inputs": [],
      "name": "renounceOwnership",
      "outputs": [],
      "stateMutability": "nonpayable",
      "type": "function"
    },
    {
      "inputs": [
        {
          "internalType": "uint256",
          "name": "",
          "type": "uint256"
        }
      ],
      "name": "routers",
      "outputs": [
        {
          "internalType": "address",
          "name": "",
          "type": "address"
        }
      ],
      "stateMutability": "view",
      "type": "function"
    },
    {
      "inputs": [
        {
          "internalType": "uint256",
          "name": "",
          "type": "uint256"
        }
      ],
      "name": "stables",
      "outputs": [
        {
          "internalType": "address",
          "name": "",
          "type": "address"
        }
      ],
      "stateMutability": "view",
      "type": "function"
    },
    {
      "inputs": [
        {
          "internalType": "uint256",
          "name": "",
          "type": "uint256"
        }
      ],
      "name": "tokens",
      "outputs": [
        {
          "internalType": "address",
          "name": "",
          "type": "address"
        }
      ],
      "stateMutability": "view",
      "type": "function"
    },
    {
      "inputs": [
        {
          "internalType": "address",
          "name": "newOwner",
          "type": "address"
        }
      ],
      "name": "transferOwnership",
      "outputs": [],
      "stateMutability": "nonpayable",
      "type": "function"
    },
    {
      "inputs": [
        {
          "internalType": "address[]",
          "name": "_routers",
          "type": "address[]"
        }
      ],
      "name": "addRouters",
      "outputs": [],
      "stateMutability": "nonpayable",
      "type": "function"
    },
    {
      "inputs": [
        {
          "internalType": "address[]",
          "name": "_tokens",
          "type": "address[]"
        }
      ],
      "name": "addTokens",
      "outputs": [],
      "stateMutability": "nonpayable",
      "type": "function"
    },
    {
      "inputs": [
        {
          "internalType": "address[]",
          "name": "_stables",
          "type": "address[]"
        }
      ],
      "name": "addStables",
      "outputs": [],
      "stateMutability": "nonpayable",
      "type": "function"
    },
    {
      "inputs": [
        {
          "internalType": "address",
          "name": "router",
          "type": "address"
        },
        {
          "internalType": "address",
          "name": "_tokenIn",
          "type": "address"
        },
        {
          "internalType": "address",
          "name": "_tokenOut",
          "type": "address"
        },
        {
          "internalType": "uint256",
          "name": "_amount",
          "type": "uint256"
        }
      ],
      "name": "getAmountOutMin",
      "outputs": [
        {
          "internalType": "uint256",
          "name": "",
          "type": "uint256"
        }
      ],
      "stateMutability": "view",
      "type": "function"
    },
    {
      "inputs": [
        {
          "internalType": "address",
          "name": "_router1",
          "type": "address"
        },
        {
          "internalType": "address",
          "name": "_router2",
          "type": "address"
        },
        {
          "internalType": "address",
          "name": "_token1",
          "type": "address"
        },
        {
          "internalType": "address",
          "name": "_token2",
          "type": "address"
        },
        {
          "internalType": "uint256",
          "name": "_amount",
          "type": "uint256"
        }
      ],
      "name": "estimateDualDexTrade",
      "outputs": [
        {
          "internalType": "uint256",
          "name": "",
          "type": "uint256"
        }
      ],
      "stateMutability": "view",
      "type": "function"
    },
    {
      "inputs": [
        {
          "internalType": "address",
          "name": "_router1",
          "type": "address"
        },
        {
          "internalType": "address",
          "name": "_router2",
          "type": "address"
        },
        {
          "internalType": "address",
          "name": "_token1",
          "type": "address"
        },
        {
          "internalType": "address",
          "name": "_token2",
          "type": "address"
        },
        {
          "internalType": "uint256",
          "name": "_amount",
          "type": "uint256"
        }
      ],
      "name": "dualDexTrade",
      "outputs": [],
      "stateMutability": "nonpayable",
      "type": "function"
    },
    {
      "inputs": [
        {
          "internalType": "address",
          "name": "_router",
          "type": "address"
        },
        {
          "internalType": "address",
          "name": "_baseAsset",
          "type": "address"
        },
        {
          "internalType": "uint256",
          "name": "_amount",
          "type": "uint256"
        }
      ],
      "name": "instaSearch",
      "outputs": [
        {
          "internalType": "uint256",
          "name": "",
          "type": "uint256"
        },
        {
          "internalType": "address",
          "name": "",
          "type": "address"
        },
        {
          "internalType": "address",
          "name": "",
          "type": "address"
        },
        {
          "internalType": "address",
          "name": "",
          "type": "address"
        }
      ],
      "stateMutability": "view",
      "type": "function"
    },
    {
      "inputs": [
        {
          "internalType": "address",
          "name": "_router1",
          "type": "address"
        },
        {
          "internalType": "address",
          "name": "_token1",
          "type": "address"
        },
        {
          "internalType": "address",
          "name": "_token2",
          "type": "address"
        },
        {
          "internalType": "address",
          "name": "_token3",
          "type": "address"
        },
        {
          "internalType": "address",
          "name": "_token4",
          "type": "address"
        },
        {
          "internalType": "uint256",
          "name": "_amount",
          "type": "uint256"
        }
      ],
      "name": "instaTrade",
      "outputs": [],
      "stateMutability": "nonpayable",
      "type": "function"
    },
    {
      "inputs": [
        {
          "internalType": "address",
          "name": "_tokenContractAddress",
          "type": "address"
        }
      ],
      "name": "getBalance",
      "outputs": [
        {
          "internalType": "uint256",
          "name": "",
          "type": "uint256"
        }
      ],
      "stateMutability": "view",
      "type": "function"
    },
    {
      "inputs": [],
      "name": "recoverEth",
      "outputs": [],
      "stateMutability": "nonpayable",
      "type": "function"
    },
    {
      "inputs": [
        {
          "internalType": "address",
          "name": "tokenAddress",
          "type": "address"
        }
      ],
      "name": "recoverTokens",
      "outputs": [],
      "stateMutability": "nonpayable",
      "type": "function"
    }
  ],
  "bytecode": "0x608060405234801562000010575f80fd5b5062000031620000256200003760201b60201c565b6200003e60201b60201c565b620000ff565b5f33905090565b5f805f9054906101000a900473ffffffffffffffffffffffffffffffffffffffff169050815f806101000a81548173ffffffffffffffffffffffffffffffffffffffff021916908373ffffffffffffffffffffffffffffffffffffffff1602179055508173ffffffffffffffffffffffffffffffffffffffff168173ffffffffffffffffffffffffffffffffffffffff167f8be0079c531659141344cd1fd0a4f28419497f9722a3daafe3b4186f6b6457e060405160405180910390a35050565b61259f806200010d5f395ff3fe608060405234801561000f575f80fd5b5060043610610109575f3560e01c8063542c8f35116100a0578063bcdb446b1161006f578063bcdb446b146102b1578063c58f9ce4146102bb578063dece9591146102d7578063f2fde38b1461030a578063f8b2cb4f1461032657610109565b8063542c8f351461023d578063643aadb714610259578063715018a6146102895780638da5cb5b1461029357610109565b80634ae05c7d116100dc5780634ae05c7d146101a55780634b01f85e146101c15780634e9c1118146101dd5780634f64b2be1461020d57610109565b8063068e7ca11461010d57806316114acd1461013d5780631aa513181461015957806343cf6f2414610175575b5f80fd5b61012760048036038101906101229190611bd7565b610356565b6040516101349190611c5d565b60405180910390f35b61015760048036038101906101529190611c76565b610383565b005b610173600480360381019061016e9190611bd7565b6104fa565b005b61018f600480360381019061018a9190611ca1565b6107d7565b60405161019c9190611c5d565b60405180910390f35b6101bf60048036038101906101ba9190611d66565b61097a565b005b6101db60048036038101906101d69190611d66565b610aa2565b005b6101f760048036038101906101f29190611db1565b610bca565b6040516102049190611deb565b60405180910390f35b61022760048036038101906102229190611db1565b610c05565b6040516102349190611deb565b60405180910390f35b61025760048036038101906102529190611e04565b610c40565b005b610273600480360381019061026e9190611db1565b611132565b6040516102809190611deb565b60405180910390f35b61029161116d565b005b61029b6111f4565b6040516102a89190611deb565b60405180910390f35b6102b961121b565b005b6102d560048036038101906102d09190611d66565b6112dd565b005b6102f160048036038101906102ec9190611e8d565b611405565b6040516103019493929190611edd565b60405180910390f35b610324600480360381019061031f9190611c76565b6116f0565b005b610340600480360381019061033b9190611c76565b6117e6565b60405161034d9190611c5d565b60405180910390f35b5f80610364878686866107d7565b90505f610373878688856107d7565b9050809250505095945050505050565b61038b61186b565b73ffffffffffffffffffffffffffffffffffffffff166103a96111f4565b73ffffffffffffffffffffffffffffffffffffffff16146103ff576040517f08c379a00000000000000000000000000000000000000000000000000000000081526004016103f690611f7a565b60405180910390fd5b5f8190508073ffffffffffffffffffffffffffffffffffffffff1663a9059cbb338373ffffffffffffffffffffffffffffffffffffffff166370a08231306040518263ffffffff1660e01b81526004016104599190611deb565b602060405180830381865afa158015610474573d5f803e3d5ffd5b505050506040513d601f19601f820116820180604052508101906104989190611fac565b6040518363ffffffff1660e01b81526004016104b5929190611fd7565b6020604051808303815f875af11580156104d1573d5f803e3d5ffd5b505050506040513d601f19601f820116820180604052508101906104f59190612033565b505050565b61050261186b565b73ffffffffffffffffffffffffffffffffffffffff166105206111f4565b73ffffffffffffffffffffffffffffffffffffffff1614610576576040517f08c379a000000000000000000000000000000000000000000000000000000000815260040161056d90611f7a565b60405180910390fd5b5f8373ffffffffffffffffffffffffffffffffffffffff166370a08231306040518263ffffffff1660e01b81526004016105b09190611deb565b602060405180830381865afa1580156105cb573d5f803e3d5ffd5b505050506040513d601f19601f820116820180604052508101906105ef9190611fac565b90505f8373ffffffffffffffffffffffffffffffffffffffff166370a08231306040518263ffffffff1660e01b815260040161062b9190611deb565b602060405180830381865afa158015610646573d5f803e3d5ffd5b505050506040513d601f19601f8201168201806040525081019061066a9190611fac565b905061067887868686611872565b5f8473ffffffffffffffffffffffffffffffffffffffff166370a08231306040518263ffffffff1660e01b81526004016106b29190611deb565b602060405180830381865afa1580156106cd573d5f803e3d5ffd5b505050506040513d601f19601f820116820180604052508101906106f19190611fac565b90505f8282610700919061208b565b905061070e88878984611872565b5f8773ffffffffffffffffffffffffffffffffffffffff166370a08231306040518263ffffffff1660e01b81526004016107489190611deb565b602060405180830381865afa158015610763573d5f803e3d5ffd5b505050506040513d601f19601f820116820180604052508101906107879190611fac565b90508481116107cb576040517f08c379a00000000000000000000000000000000000000000000000000000000081526004016107c290612108565b60405180910390fd5b50505050505050505050565b5f6060600267ffffffffffffffff8111156107f5576107f4612126565b5b6040519080825280602002602001820160405280156108235781602001602082028036833780820191505090505b50905084815f8151811061083a57610839612153565b5b602002602001019073ffffffffffffffffffffffffffffffffffffffff16908173ffffffffffffffffffffffffffffffffffffffff1681525050838160018151811061088957610888612153565b5b602002602001019073ffffffffffffffffffffffffffffffffffffffff16908173ffffffffffffffffffffffffffffffffffffffff16815250505f8673ffffffffffffffffffffffffffffffffffffffff1663d06ca61f85846040518363ffffffff1660e01b81526004016108ff929190612237565b5f60405180830381865afa92505050801561093c57506040513d5f823e3d601f19601f820116820180604052508101906109399190612380565b60015b1561096d578060018451610950919061208b565b8151811061096157610960612153565b5b60200260200101519150505b8092505050949350505050565b61098261186b565b73ffffffffffffffffffffffffffffffffffffffff166109a06111f4565b73ffffffffffffffffffffffffffffffffffffffff16146109f6576040517f08c379a00000000000000000000000000000000000000000000000000000000081526004016109ed90611f7a565b60405180910390fd5b5f5b82829050811015610a9d576002838383818110610a1857610a17612153565b5b9050602002016020810190610a2d9190611c76565b908060018154018082558091505060019003905f5260205f20015f9091909190916101000a81548173ffffffffffffffffffffffffffffffffffffffff021916908373ffffffffffffffffffffffffffffffffffffffff1602179055508080610a95906123c7565b9150506109f8565b505050565b610aaa61186b565b73ffffffffffffffffffffffffffffffffffffffff16610ac86111f4565b73ffffffffffffffffffffffffffffffffffffffff1614610b1e576040517f08c379a0000000000000000000000000000000000000000000000000000000008152600401610b1590611f7a565b60405180910390fd5b5f5b82829050811015610bc5576001838383818110610b4057610b3f612153565b5b9050602002016020810190610b559190611c76565b908060018154018082558091505060019003905f5260205f20015f9091909190916101000a81548173ffffffffffffffffffffffffffffffffffffffff021916908373ffffffffffffffffffffffffffffffffffffffff1602179055508080610bbd906123c7565b915050610b20565b505050565b60018181548110610bd9575f80fd5b905f5260205f20015f915054906101000a900473ffffffffffffffffffffffffffffffffffffffff1681565b60028181548110610c14575f80fd5b905f5260205f20015f915054906101000a900473ffffffffffffffffffffffffffffffffffffffff1681565b610c4861186b565b73ffffffffffffffffffffffffffffffffffffffff16610c666111f4565b73ffffffffffffffffffffffffffffffffffffffff1614610cbc576040517f08c379a0000000000000000000000000000000000000000000000000000000008152600401610cb390611f7a565b60405180910390fd5b5f8573ffffffffffffffffffffffffffffffffffffffff166370a08231306040518263ffffffff1660e01b8152600401610cf69190611deb565b602060405180830381865afa158015610d11573d5f803e3d5ffd5b505050506040513d601f19601f82011682018060405250810190610d359190611fac565b90505f8573ffffffffffffffffffffffffffffffffffffffff166370a08231306040518263ffffffff1660e01b8152600401610d719190611deb565b602060405180830381865afa158015610d8c573d5f803e3d5ffd5b505050506040513d601f19601f82011682018060405250810190610db09190611fac565b90505f8573ffffffffffffffffffffffffffffffffffffffff166370a08231306040518263ffffffff1660e01b8152600401610dec9190611deb565b602060405180830381865afa158015610e07573d5f803e3d5ffd5b505050506040513d601f19601f82011682018060405250810190610e2b9190611fac565b90505f8573ffffffffffffffffffffffffffffffffffffffff166370a08231306040518263ffffffff1660e01b8152600401610e679190611deb565b602060405180830381865afa158015610e82573d5f803e3d5ffd5b505050506040513d601f19601f82011682018060405250810190610ea69190611fac565b9050610eb48a8a8a88611872565b5f838973ffffffffffffffffffffffffffffffffffffffff166370a08231306040518263ffffffff1660e01b8152600401610eef9190611deb565b602060405180830381865afa158015610f0a573d5f803e3d5ffd5b505050506040513d601f19601f82011682018060405250810190610f2e9190611fac565b610f38919061208b565b9050610f468b8a8a84611872565b5f838973ffffffffffffffffffffffffffffffffffffffff166370a08231306040518263ffffffff1660e01b8152600401610f819190611deb565b602060405180830381865afa158015610f9c573d5f803e3d5ffd5b505050506040513d601f19601f82011682018060405250810190610fc09190611fac565b610fca919061208b565b9050610fd88c8a8a84611872565b5f838973ffffffffffffffffffffffffffffffffffffffff166370a08231306040518263ffffffff1660e01b81526004016110139190611deb565b602060405180830381865afa15801561102e573d5f803e3d5ffd5b505050506040513d601f19601f820116820180604052508101906110529190611fac565b61105c919061208b565b905061106a8d8a8e84611872565b868c73ffffffffffffffffffffffffffffffffffffffff166370a08231306040518263ffffffff1660e01b81526004016110a49190611deb565b602060405180830381865afa1580156110bf573d5f803e3d5ffd5b505050506040513d601f19601f820116820180604052508101906110e39190611fac565b11611123576040517f08c379a000000000000000000000000000000000000000000000000000000000815260040161111a90612108565b60405180910390fd5b50505050505050505050505050565b60038181548110611141575f80fd5b905f5260205f20015f915054906101000a900473ffffffffffffffffffffffffffffffffffffffff1681565b61117561186b565b73ffffffffffffffffffffffffffffffffffffffff166111936111f4565b73ffffffffffffffffffffffffffffffffffffffff16146111e9576040517f08c379a00000000000000000000000000000000000000000000000000000000081526004016111e090611f7a565b60405180910390fd5b6111f25f611a78565b565b5f805f9054906101000a900473ffffffffffffffffffffffffffffffffffffffff16905090565b61122361186b565b73ffffffffffffffffffffffffffffffffffffffff166112416111f4565b73ffffffffffffffffffffffffffffffffffffffff1614611297576040517f08c379a000000000000000000000000000000000000000000000000000000000815260040161128e90611f7a565b60405180910390fd5b3373ffffffffffffffffffffffffffffffffffffffff166108fc4790811502906040515f60405180830381858888f193505050501580156112da573d5f803e3d5ffd5b50565b6112e561186b565b73ffffffffffffffffffffffffffffffffffffffff166113036111f4565b73ffffffffffffffffffffffffffffffffffffffff1614611359576040517f08c379a000000000000000000000000000000000000000000000000000000000815260040161135090611f7a565b60405180910390fd5b5f5b8282905081101561140057600383838381811061137b5761137a612153565b5b90506020020160208101906113909190611c76565b908060018154018082558091505060019003905f5260205f20015f9091909190916101000a81548173ffffffffffffffffffffffffffffffffffffffff021916908373ffffffffffffffffffffffffffffffffffffffff16021790555080806113f8906123c7565b91505061135b565b505050565b5f805f805f805f805f5b6002805490508110156116d6575f5b6003805490508110156116c2575f5b6002805490508110156116ae576114818e8e6002868154811061145357611452612153565b5b905f5260205f20015f9054906101000a900473ffffffffffffffffffffffffffffffffffffffff168f6107d7565b96506115058e6002858154811061149b5761149a612153565b5b905f5260205f20015f9054906101000a900473ffffffffffffffffffffffffffffffffffffffff16600385815481106114d7576114d6612153565b5b905f5260205f20015f9054906101000a900473ffffffffffffffffffffffffffffffffffffffff168a6107d7565b96506115898e6003848154811061151f5761151e612153565b5b905f5260205f20015f9054906101000a900473ffffffffffffffffffffffffffffffffffffffff166002848154811061155b5761155a612153565b5b905f5260205f20015f9054906101000a900473ffffffffffffffffffffffffffffffffffffffff168a6107d7565b96506115d28e600283815481106115a3576115a2612153565b5b905f5260205f20015f9054906101000a900473ffffffffffffffffffffffffffffffffffffffff168f8a6107d7565b96508b87111561169b57600283815481106115f0576115ef612153565b5b905f5260205f20015f9054906101000a900473ffffffffffffffffffffffffffffffffffffffff1695506002828154811061162e5761162d612153565b5b905f5260205f20015f9054906101000a900473ffffffffffffffffffffffffffffffffffffffff1694506002818154811061166c5761166b612153565b5b905f5260205f20015f9054906101000a900473ffffffffffffffffffffffffffffffffffffffff1693506116ae565b80806116a6906123c7565b91505061142d565b5080806116ba906123c7565b91505061141e565b5080806116ce906123c7565b91505061140f565b508383838397509750975097505050505093509350935093565b6116f861186b565b73ffffffffffffffffffffffffffffffffffffffff166117166111f4565b73ffffffffffffffffffffffffffffffffffffffff161461176c576040517f08c379a000000000000000000000000000000000000000000000000000000000815260040161176390611f7a565b60405180910390fd5b5f73ffffffffffffffffffffffffffffffffffffffff168173ffffffffffffffffffffffffffffffffffffffff16036117da576040517f08c379a00000000000000000000000000000000000000000000000000000000081526004016117d19061247e565b60405180910390fd5b6117e381611a78565b50565b5f808273ffffffffffffffffffffffffffffffffffffffff166370a08231306040518263ffffffff1660e01b81526004016118219190611deb565b602060405180830381865afa15801561183c573d5f803e3d5ffd5b505050506040513d601f19601f820116820180604052508101906118609190611fac565b905080915050919050565b5f33905090565b8273ffffffffffffffffffffffffffffffffffffffff1663095ea7b385836040518363ffffffff1660e01b81526004016118ad929190611fd7565b6020604051808303815f875af11580156118c9573d5f803e3d5ffd5b505050506040513d601f19601f820116820180604052508101906118ed9190612033565b506060600267ffffffffffffffff81111561190b5761190a612126565b5b6040519080825280602002602001820160405280156119395781602001602082028036833780820191505090505b50905083815f815181106119505761194f612153565b5b602002602001019073ffffffffffffffffffffffffffffffffffffffff16908173ffffffffffffffffffffffffffffffffffffffff1681525050828160018151811061199f5761199e612153565b5b602002602001019073ffffffffffffffffffffffffffffffffffffffff16908173ffffffffffffffffffffffffffffffffffffffff16815250505f61012c426119e8919061249c565b90508573ffffffffffffffffffffffffffffffffffffffff166338ed17398460018530866040518663ffffffff1660e01b8152600401611a2c959493929190612511565b5f604051808303815f875af1158015611a47573d5f803e3d5ffd5b505050506040513d5f823e3d601f19601f82011682018060405250810190611a6f9190612380565b50505050505050565b5f805f9054906101000a900473ffffffffffffffffffffffffffffffffffffffff169050815f806101000a81548173ffffffffffffffffffffffffffffffffffffffff021916908373ffffffffffffffffffffffffffffffffffffffff1602179055508173ffffffffffffffffffffffffffffffffffffffff168173ffffffffffffffffffffffffffffffffffffffff167f8be0079c531659141344cd1fd0a4f28419497f9722a3daafe3b4186f6b6457e060405160405180910390a35050565b5f604051905090565b5f80fd5b5f80fd5b5f73ffffffffffffffffffffffffffffffffffffffff82169050919050565b5f611b7382611b4a565b9050919050565b611b8381611b69565b8114611b8d575f80fd5b50565b5f81359050611b9e81611b7a565b92915050565b5f819050919050565b611bb681611ba4565b8114611bc0575f80fd5b50565b5f81359050611bd181611bad565b92915050565b5f805f805f60a08688031215611bf057611bef611b42565b5b5f611bfd88828901611b90565b9550506020611c0e88828901611b90565b9450506040611c1f88828901611b90565b9350506060611c3088828901611b90565b9250506080611c4188828901611bc3565b9150509295509295909350565b611c5781611ba4565b82525050565b5f602082019050611c705f830184611c4e565b92915050565b5f60208284031215611c8b57611c8a611b42565b5b5f611c9884828501611b90565b91505092915050565b5f805f8060808587031215611cb957611cb8611b42565b5b5f611cc687828801611b90565b9450506020611cd787828801611b90565b9350506040611ce887828801611b90565b9250506060611cf987828801611bc3565b91505092959194509250565b5f80fd5b5f80fd5b5f80fd5b5f8083601f840112611d2657611d25611d05565b5b8235905067ffffffffffffffff811115611d4357611d42611d09565b5b602083019150836020820283011115611d5f57611d5e611d0d565b5b9250929050565b5f8060208385031215611d7c57611d7b611b42565b5b5f83013567ffffffffffffffff811115611d9957611d98611b46565b5b611da585828601611d11565b92509250509250929050565b5f60208284031215611dc657611dc5611b42565b5b5f611dd384828501611bc3565b91505092915050565b611de581611b69565b82525050565b5f602082019050611dfe5f830184611ddc565b92915050565b5f805f805f8060c08789031215611e1e57611e1d611b42565b5b5f611e2b89828a01611b90565b9650506020611e3c89828a01611b90565b9550506040611e4d89828a01611b90565b9450506060611e5e89828a01611b90565b9350506080611e6f89828a01611b90565b92505060a0611e8089828a01611bc3565b9150509295509295509295565b5f805f60608486031215611ea457611ea3611b42565b5b5f611eb186828701611b90565b9350506020611ec286828701611b90565b9250506040611ed386828701611bc3565b9150509250925092565b5f608082019050611ef05f830187611c4e565b611efd6020830186611ddc565b611f0a6040830185611ddc565b611f176060830184611ddc565b95945050505050565b5f82825260208201905092915050565b7f4f776e61626c653a2063616c6c6572206973206e6f7420746865206f776e65725f82015250565b5f611f64602083611f20565b9150611f6f82611f30565b602082019050919050565b5f6020820190508181035f830152611f9181611f58565b9050919050565b5f81519050611fa681611bad565b92915050565b5f60208284031215611fc157611fc0611b42565b5b5f611fce84828501611f98565b91505092915050565b5f604082019050611fea5f830185611ddc565b611ff76020830184611c4e565b9392505050565b5f8115159050919050565b61201281611ffe565b811461201c575f80fd5b50565b5f8151905061202d81612009565b92915050565b5f6020828403121561204857612047611b42565b5b5f6120558482850161201f565b91505092915050565b7f4e487b71000000000000000000000000000000000000000000000000000000005f52601160045260245ffd5b5f61209582611ba4565b91506120a083611ba4565b92508282039050818111156120b8576120b761205e565b5b92915050565b7f54726164652052657665727465642c204e6f2050726f666974204d61646500005f82015250565b5f6120f2601e83611f20565b91506120fd826120be565b602082019050919050565b5f6020820190508181035f83015261211f816120e6565b9050919050565b7f4e487b71000000000000000000000000000000000000000000000000000000005f52604160045260245ffd5b7f4e487b71000000000000000000000000000000000000000000000000000000005f52603260045260245ffd5b5f81519050919050565b5f82825260208201905092915050565b5f819050602082019050919050565b6121b281611b69565b82525050565b5f6121c383836121a9565b60208301905092915050565b5f602082019050919050565b5f6121e582612180565b6121ef818561218a565b93506121fa8361219a565b805f5b8381101561222a57815161221188826121b8565b975061221c836121cf565b9250506001810190506121fd565b5085935050505092915050565b5f60408201905061224a5f830185611c4e565b818103602083015261225c81846121db565b90509392505050565b5f601f19601f8301169050919050565b61227e82612265565b810181811067ffffffffffffffff8211171561229d5761229c612126565b5b80604052505050565b5f6122af611b39565b90506122bb8282612275565b919050565b5f67ffffffffffffffff8211156122da576122d9612126565b5b602082029050602081019050919050565b5f6122fd6122f8846122c0565b6122a6565b905080838252602082019050602084028301858111156123205761231f611d0d565b5b835b8181101561234957806123358882611f98565b845260208401935050602081019050612322565b5050509392505050565b5f82601f83011261236757612366611d05565b5b81516123778482602086016122eb565b91505092915050565b5f6020828403121561239557612394611b42565b5b5f82015167ffffffffffffffff8111156123b2576123b1611b46565b5b6123be84828501612353565b91505092915050565b5f6123d182611ba4565b91507fffffffffffffffffffffffffffffffffffffffffffffffffffffffffffffffff82036124035761240261205e565b5b600182019050919050565b7f4f776e61626c653a206e6577206f776e657220697320746865207a65726f20615f8201527f6464726573730000000000000000000000000000000000000000000000000000602082015250565b5f612468602683611f20565b91506124738261240e565b604082019050919050565b5f6020820190508181035f8301526124958161245c565b9050919050565b5f6124a682611ba4565b91506124b183611ba4565b92508282019050808211156124c9576124c861205e565b5b92915050565b5f819050919050565b5f819050919050565b5f6124fb6124f66124f1846124cf565b6124d8565b611ba4565b9050919050565b61250b816124e1565b82525050565b5f60a0820190506125245f830188611c4e565b6125316020830187612502565b818103604083015261254381866121db565b90506125526060830185611ddc565b61255f6080830184611c4e565b969550505050505056fea2646970667358221220d4c9650ac78f227f0a40a089b21cc977dae292a2135ef1a88009f6261383182d64736f6c63430008150033",
  "immutableReferences": {},
  "source": "//SPDX-License-Identifier: Unlicense\npragma solidity ^0.8.4;\n\nimport \"hardhat/console.sol\";\n\nimport \"@openzeppelin/contracts/access/Ownable.sol\";\n\ninterface IERC20 {\n  function totalSupply() external view returns (uint);\n  function balanceOf(address account) external view returns (uint);\n  function transfer(address recipient, uint amount) external returns (bool);\n  function allowance(address owner, address spender) external view returns (uint);\n  function approve(address spender, uint amount) external returns (bool);\n  function transferFrom(address sender, address recipient, uint amount) external returns (bool);\n  event Transfer(address indexed from, address indexed to, uint value);\n  event Approval(address indexed owner, address indexed spender, uint value);\n}\n\ninterface IUniswapV2Router {\n  function getAmountsOut(uint256 amountIn, address[] memory path) external view returns (uint256[] memory amounts);\n  function swapExactTokensForTokens(uint256 amountIn, uint256 amountOutMin, address[] calldata path, address to, uint256 deadline) external returns (uint256[] memory amounts);\n}\n\ninterface IUniswapV2Pair {\n  function token0() external view returns (address);\n  function token1() external view returns (address);\n  function swap(uint256 amount0Out,\tuint256 amount1Out,\taddress to,\tbytes calldata data) external;\n}\n\ncontract InstaArb is Ownable {\n\n  address [] public routers;\n  address [] public tokens;\n  address [] public stables;\n\n  function addRouters(address[] calldata _routers) external onlyOwner {\n    for (uint i=0; i<_routers.length; i++) {\n      routers.push(_routers[i]);\n    }\n  }\n\n  function addTokens(address[] calldata _tokens) external onlyOwner {\n    for (uint i=0; i<_tokens.length; i++) {\n      tokens.push(_tokens[i]);\n    }\n  }\n\n  function addStables(address[] calldata _stables) external onlyOwner {\n    for (uint i=0; i<_stables.length; i++) {\n      stables.push(_stables[i]);\n    }\n  }\n\n  function swap(address router, address _tokenIn, address _tokenOut, uint256 _amount) private {\n    IERC20(_tokenIn).approve(router, _amount);\n    address[] memory path;\n    path = new address[](2);\n    path[0] = _tokenIn;\n    path[1] = _tokenOut;\n    uint deadline = block.timestamp + 300;\n    IUniswapV2Router(router).swapExactTokensForTokens(_amount, 1, path, address(this), deadline);\n  }\n\n   function getAmountOutMin(address router, address _tokenIn, address _tokenOut, uint256 _amount) public view returns (uint256 ) {\n    address[] memory path;\n    path = new address[](2);\n    path[0] = _tokenIn;\n    path[1] = _tokenOut;\n    uint256 result = 0;\n    try IUniswapV2Router(router).getAmountsOut(_amount, path) returns (uint256[] memory amountOutMins) {\n      result = amountOutMins[path.length -1];\n    } catch {\n    }\n    return result;\n  }\n\n  function estimateDualDexTrade(address _router1, address _router2, address _token1, address _token2, uint256 _amount) external view returns (uint256) {\n    uint256 amtBack1 = getAmountOutMin(_router1, _token1, _token2, _amount);\n    uint256 amtBack2 = getAmountOutMin(_router2, _token2, _token1, amtBack1);\n    return amtBack2;\n  }\n  \n  function dualDexTrade(address _router1, address _router2, address _token1, address _token2, uint256 _amount) external onlyOwner {\n    uint startBalance = IERC20(_token1).balanceOf(address(this));\n    uint token2InitialBalance = IERC20(_token2).balanceOf(address(this));\n    swap(_router1,_token1, _token2,_amount);\n    uint token2Balance = IERC20(_token2).balanceOf(address(this));\n    uint tradeableAmount = token2Balance - token2InitialBalance;\n    swap(_router2,_token2, _token1,tradeableAmount);\n    uint endBalance = IERC20(_token1).balanceOf(address(this));\n    require(endBalance > startBalance, \"Trade Reverted, No Profit Made\");\n  }\n\n  /*\n    Base Asset > Altcoin > Stablecoin > Altcoin > Base Asset\n  */ \n  function instaSearch(address _router, address _baseAsset, uint256 _amount) external view returns (uint256,address,address,address) {\n    uint256 amtBack;\n    address token1;\n    address token2;\n    address token3;\n    for (uint i1=0; i1<tokens.length; i1++) {\n      for (uint i2=0; i2<stables.length; i2++) {\n        for (uint i3=0; i3<tokens.length; i3++) {\n          amtBack = getAmountOutMin(_router, _baseAsset, tokens[i1], _amount);\n          amtBack = getAmountOutMin(_router, tokens[i1], stables[i2], amtBack);\n          amtBack = getAmountOutMin(_router, stables[i2], tokens[i3], amtBack);\n          amtBack = getAmountOutMin(_router, tokens[i3], _baseAsset, amtBack);\n          if (amtBack > _amount) {\n            token1 = tokens[i1];\n            token2 = tokens[i2];\n            token3 = tokens[i3];\n            break;\n          }\n        }\n      }\n    }\n    return (amtBack,token1,token2,token3);\n  }\n\n  function instaTrade(address _router1, address _token1, address _token2, address _token3, address _token4, uint256 _amount) external onlyOwner {\n    uint startBalance = IERC20(_token1).balanceOf(address(this));\n    uint token2InitialBalance = IERC20(_token2).balanceOf(address(this));\n    uint token3InitialBalance = IERC20(_token3).balanceOf(address(this));\n    uint token4InitialBalance = IERC20(_token4).balanceOf(address(this));\n    swap(_router1,_token1, _token2, _amount);\n    uint tradeableAmount2 = IERC20(_token2).balanceOf(address(this)) - token2InitialBalance;\n    swap(_router1,_token2, _token3, tradeableAmount2);\n    uint tradeableAmount3 = IERC20(_token3).balanceOf(address(this)) - token3InitialBalance;\n    swap(_router1,_token3, _token4, tradeableAmount3);\n    uint tradeableAmount4 = IERC20(_token4).balanceOf(address(this)) - token4InitialBalance;\n    swap(_router1,_token4, _token1, tradeableAmount4);\n    require(IERC20(_token1).balanceOf(address(this)) > startBalance, \"Trade Reverted, No Profit Made\");\n  }\n\n  function getBalance (address _tokenContractAddress) external view  returns (uint256) {\n    uint balance = IERC20(_tokenContractAddress).balanceOf(address(this));\n    return balance;\n  }\n  \n  function recoverEth() external onlyOwner {\n    payable(msg.sender).transfer(address(this).balance);\n  }\n\n  function recoverTokens(address tokenAddress) external onlyOwner {\n    IERC20 token = IERC20(tokenAddress);\n    token.transfer(msg.sender, token.balanceOf(address(this)));\n  }\n\n}\n",
  "sourcePath": "/Users/justinsacco/Developer Projects/TradingSystems/DEX-Arbitrage/contracts/InstaArb.sol",
  "compiler": {
    "name": "solc",
    "version": "0.8.21+commit.d9974bed.Emscripten.clang"
  },
  "schemaVersion": "3.4.4",
  "updatedAt": "2023-08-29T23:00:45.093Z",
  "devdoc": {
    "kind": "dev",
    "methods": {
      "owner()": {
        "details": "Returns the address of the current owner."
      },
      "renounceOwnership()": {
        "details": "Leaves the contract without owner. It will not be possible to call `onlyOwner` functions anymore. Can only be called by the current owner. NOTE: Renouncing ownership will leave the contract without an owner, thereby removing any functionality that is only available to the owner."
      },
      "transferOwnership(address)": {
        "details": "Transfers ownership of the contract to a new account (`newOwner`). Can only be called by the current owner."
      }
    },
    "version": 1
  },
  "userdoc": {
    "kind": "user",
    "methods": {},
    "version": 1
  }
}